:020000040001F9
:10600000E43A00209D930100B7930100B993010089
:106010000000000000000000000000000000000080
:10602000000000000000000000000000BB93010021
:106030000000000000000000BD930100BF930100BC
:10604000C1930100C1930100B3C901003BC201002B
:10605000C193010000000000C9970100AF8001005A
:10606000C1930100C193010003720100C1930100BB
:10607000C1930100C1930100C1930100C1930100CC
:10608000C19301005DA30100C1930100C193010010
:106090007FA30100C1930100A1BD0100C1930100D4
:1060A000C1930100C1930100000000000000000046
:1060B00000000000000000000000000000000000E0
:1060C0000348854607F050F8004800470167010083
:1060D000E43A0020401E00BF00BF00BF00BF00BF69
:1060E00000BF00BF00BF00BF00BF00BF00BFF1D1B5
:1060F00070470000401E00BF00BF00BF00BF00BFD0
:1061000000BF00BF00BF00BF00BF00BF00BFF1D194
:1061100070470000144C144D0646064FF0B4034C73
:10612000024D024E014FF0B4074800470000000046
:10613000000000000000002100000000000000003E
:106140000000000000000000F9FFFFFF016881F37C
:1061500008884068034AEFF305839A42DAD1024C7B
:10616000A646004700000000FFFFFFFF38B500BF54
:10617000F648F74B10220F210090002004F003F99D
:10618000044600BF2546002D06D000BFF1A25121D4
:10619000284600F0CFFB00BF00BF00BF38BD70B580
:1061A00000BFEF49042003F08CFB044600BF2546E6
:1061B000002D06D000BFE7A25A21284600F0BAFB06
:1061C00000BF00BF00BF70BD70B505460C46E1B210
:1061D000284602F075F970BD10B50020E14908703D
:1061E000E148006804F0C3F90020E049087001208C
:1061F000DF4908700020DF49087002F084FB10BD01
:1062000070B5DA480078012800D170BDFFF7E4FFCF
:106210000120D6490870D64908700122C103D2482E
:10622000006804F073F9044600BF2546002D06D02F
:1062300000BFC8A28221284600F07CFB00BF00BF3F
:1062400000BFE2E770B5FFF7C7FF0120C84908703B
:106250000320C449087002225103C348006804F0B7
:1062600055F9044600BF2546002D06D000BFB9A24F
:106270008E21284600F05EFB00BF00BF70BD70B5E8
:106280000446207800280CD16078002809D1A07835
:10629000302806D102F0F6FA002002F034FB01F0BB
:1062A000E2FF207800280CD16078002809D1A0787E
:1062B000002806D102F0E6FA002002F024FB02F0EA
:1062C00007F8AD4A1421204605F0FAFD054600BF47
:1062D0002E46002E06D000BF9EA2A421304600F01C
:1062E00029FB00BF00BF70BD70B5A448006804F072
:1062F0003EF9002205210904A048006804F006F9CF
:10630000044600BF2546002D06D000BF91A2AD2156
:10631000284600F00FFB00BF00BF0120984908701D
:1063200070BD10B50446FFF757FF002C0BD0012CB1
:1063300002D0022C12D10DE0002002F0E4FA062077
:1063400002F0E1FA0AE0002002F0DDFA012002F09A
:10635000DAFA03E0002002F0D6FA00BF00BF10BD59
:1063600010B58648006804F002F9002084490870DE
:1063700010BD70B50446002C14D182480078012865
:1063800006D102F07FFAFFF7EBFFFFF739FF12E0CB
:1063900002F042FB002002F0B6FAFFF7E1FF02F044
:1063A000ADFA08E0012C06D1FFF79EFF01F08BFD4E
:1063B0000546FFF7B6FF70BD10B50446704800787B
:1063C000012805D100F067FE002801D102F05AFA39
:1063D000FFF7C6FF00F05FFE002800D010BD20468A
:1063E000FFF79FFF00BFF9E710B5044602F04AFA35
:1063F00002F026FB10BD70B504462546012D1CD1C8
:106400005A480078002800D170BD5948007800280B
:1064100006D0002002F077FA032002F074FA05E0BB
:10642000002002F070FA012002F06DFA5048007866
:10643000012148404E4908701EE0022D1CD14948F8
:106440000078002816DD4A480078002803D0032091
:1064500002F059FA07E0002002F055FA41480078AE
:10646000401E404908704248007801214840404998
:10647000087001E0FFF7B0FE00BFC5E770B5044645
:106480000D462946204602F031F92946204602F001
:106490009FFE70BD70B504460D46204600F0F4FD29
:1064A00070BD70B504460D462946204602F0D3FB68
:1064B00070BD10B5344801780078401C324A107025
:1064C0003C2904DD01F0A4FC00202F49087010BD18
:1064D00010B5044601F047FDFFF7EBFF01F0A2FC09
:1064E0002A480078FF280CD0284801780078401C02
:1064F000264A10700A2904DD02F095FEFF20234988
:10650000087001F0E0FC022849D100F0C4FD002829
:1065100045D101F0CFFC14283CDC01F079FC1C488B
:10652000007800283BD1134800780A2805DA114882
:106530000078401C0F49087031E000200D490870B8
:10654000012013490870FFF77DFE28E0696801000B
:10655000B82100202E2E5C6D61696E2E6300000054
:10656000F02800200E200020082000200F2000200E
:106570000D20002012200020C9610100042000200D
:106580000C200020102000201320002015200020C7
:10659000112000200020C6490870C6490870C6486E
:1065A0000078012809D100F076FD002805D002F01E
:1065B00069F902F045FAFFF723FEBE48007801288A
:1065C00014D100F068FD002810D101F07CFC0228F5
:1065D0000CD1BA4801780078401CB84A10700C29D8
:1065E00004DD002011460870FFF72CFE01F062FC6C
:1065F000052814DC01F00CFCAF480078002813D10A
:10660000AF4801780078401CAD4A10700A290BDDB4
:106610000120A949087000201146087004E00020FC
:10662000A7490870A449087010BD08B5A5480068BE
:106630000090002304226946104601F0C0F908BD0D
:1066400008B500200090002304226946104601F09E
:10665000B6F908BD08B50020009000230422694661
:10666000104601F012FA68460078112809D16846F0
:106670004078222805D168468078332801D101204E
:1066800008BD0020FCE710B58F48006803F06FFFDD
:106690008E48006803F06BFF8D48006803F067FFC9
:1066A0008948006803F063FF10BD10B5002024E0A6
:1066B000032815D0042813D0052811D01E280FD088
:1066C00001280DD00E280BD00F2809D0002807D0A4
:1066D000022805D0122803D0102801D0112800D19B
:1066E0000AE001218A0005231B07072424021B1945
:1066F00084001A5100BF00BF401C1F28D8DB10BD0A
:106700007D20C00005F08CFB00BF724A32211420AE
:1067100005F0B6FB054600BF2E46002E06D000BF92
:106720006D4A6E49304600F005F900BF00BF00BF5A
:10673000FFF71CFDFFF733FD002306226849694877
:1067400000F048FC01F052FD01F08EFB664801F0BC
:106750007CFCFFF77FFF002814D001F054FDFF20E0
:10676000F53005F05DFB022060490969C140C907A9
:10677000C90F002902D0FFF763FF03E0022108469A
:1067800001F0BFFD12215A4802F090FA59495A48C7
:1067900002F01EF802F07BF8584A01214A4803F043
:1067A0006EFE044600BF2546002D07D000BF4A4AB2
:1067B0004A492031284600F0BDF800BF00BF504ACA
:1067C0000021424803F05BFE044600BF2546002D31
:1067D00007D000BF404A41492231284600F0AAF8BC
:1067E00000BF00BF474A0121394803F048FE044674
:1067F00000BF2546002D07D000BF374A3749243156
:10680000284600F097F800BF00BF00220121C9030D
:106810002D48006803F07AFE044600BF2546002D8F
:1068200007D000BF2C4A2D492631284600F082F8B7
:1068300000BF00BF02F026FC00F008FC00BF40DFF4
:10684000044600BF2546002D07D000BF224A234939
:106850003D31284600F06EF800BF00BF01F0D3FCC8
:1068600005F0CFFBEBE770477CB504460D4600947E
:106870000195254A0821684605F022FB7CBDF8B544
:1068800004460D46264600BF082D01D1012000E038
:1068900000200746002F06D100BF1CA2FF211B319C
:1068A00000F048F800BF00BF316870688847F8BD45
:1068B000122000201120002010200020162000208F
:1068C0001420002030D201000020002004200020ED
:1068D0000820002040290020546501000902000022
:1068E0007F62010073630100B9630100000500507D
:1068F0007D64010095640100A3640100D16401007E
:10690000E9630100F76301007F6801002E2E5C2E11
:106910002E5C2E2E5C496E636C7564655C617070D4
:106920005F636F6D6D6F6E5C6170705F74696D65D4
:10693000722E680070B504460D46164601F013FD30
:106940007D20C00005F06CFAF9480068002803D0EB
:106950002046F7490968884701F0BAFC70BD70B558
:1069600004460D462A462146F248FFF7E3FF70BD74
:1069700070B505462868002810D13B21EE480088F4
:1069800076DF044600BF2646002E06D000BFEBA2ED
:10699000E8213046FFF7CEFF00BF00BF70BD10B545
:1069A000044600BFE5A2EE212046FFF7C3FF00BF6B
:1069B00010BD10B50446E8480068002803D0204602
:1069C000E5490968884710BD3EB500BF68460078B4
:1069D00001090901491C009168460078F0218843AB
:1069E0001030009000BF2821DC4806F080FA002318
:1069F0002822DA49052001F048F800222621D7484C
:106A000005F01CFAD549C98C884209D1D34806F053
:106A100079FA002804D0D14806F074FA1E2811D95A
:106A20001422CFA168467CDF044600BF2546002D16
:106A300007D000BFC1A2FF210A312846FFF77AFF25
:106A400000BF21E0C54806F05DFA85B22A46C34979
:106A500068467CDF0446002C16D02821BF4806F08B
:106A600046FA00232822BD49052000F0A8FF00BFF8
:106A70002546002D07D000BFB0A2FF2116312846C1
:106A8000FFF758FF00BF00BF002001900290402197
:106A9000684681806021C18000210181FF21913100
:106AA000418101A87ADF044600BF2546002D07D0AA
:106AB00000BFA2A2FF2129312846FFF73BFF00BFFC
:106AC00000BF3EBDF0B5A1B0074615460295AA48E5
:106AD000006801903C2112A806F009FA3C2103A8A5
:106AE00006F005FA02201290012110A841730182DC
:106AF00002A9159101216846018501A90B9103A9FD
:106B000012A804F0DDFE0446002C16D028219B4874
:106B100006F0EDF9002340229849052000F04FFFD0
:106B200000BF2646002E07D000BF84A2FF214C31B3
:106B30003046FFF7FFFE00BF00BF21B0F0BD1E20B2
:106B40008F4908800846807840084000401C8870C3
:106B500008468078022188438949887008468078F1
:106B60001C2188430C308649887008468078202193
:106B70008843834988700720C870102008717047C7
:106B800030B587B01C21684606F0B1F900200090AE
:106B90000520C00301900F200004029003216846E5
:106BA00001730021C18101747648059076480690F2
:106BB000684604F020FF044600BF2546002D07D09C
:106BC00000BF5EA2FF216F312846FFF7B3FE00BF72
:106BD00000BF07B030BD30B585B01421684606F05F
:106BE00086F9002168460170002001906846017214
:106BF000AF21C9000182654801886846418273DF80
:106C00000446002C01D1082C0CD000BF2546002DD5
:106C100007D000BF49A2FF21AF312846FFF78AFE07
:106C200000BF00BF02205A49087005B030BD704750
:106C3000704770B504460D4656480078012803D1C8
:106C40000020FFF7B6FE02E00120FFF7B2FE70BDA4
:106C5000F8B505462888172863D008DC10280FD01F
:106C6000112829D013285DD014285CD1C9E0192837
:106C70005AD0392859D0522858D05528F5D1EFE0AC
:106C8000A8882D4908800120424908700020404909
:106C90000870414A042105F013F9044600BF274655
:106CA000002F07D000BF25A2FF21FD313846FFF796
:106CB00041FE00BF00BFE7E00020C0431E4908803E
:106CC00000203449087035480068022812D1344A3F
:106CD0000421002005F0F4F8044600BF2746002FE9
:106CE00007D000BF15A2852189003846FFF722FE94
:106CF00000BF00BFFFF76FFFFFF799FF264A04218F
:106D0000002005F0DDF8044600BF2746002F06D01E
:106D100000BF0AA223493846FFF70CFE00BF00BFA0
:106D2000B2E068E040E0AEE098E098E04FE00000BC
:106D300024200020EFBEADDE182000202E2E5C2E79
:106D40002E5C2E2E5C4170705C626C655C6E7266AF
:106D50005F626C652E6300001C200020D42E002092
:106D6000536C65657034552D3135383030303030E6
:106D7000303030310000000034D20100FC2E002001
:106D800030200020716901009F6901002820002047
:106D90001B2000201A200020336C01002C20002032
:106DA000316C010023020000C84A0021C848008855
:106DB0007FDF044600BF2746002F06D000BFC54A2C
:106DC000C5493846FFF7B6FD00BF00BF5CE00022B2
:106DD0001146BF480088A9DF044600BF2746002FA0
:106DE00007D000BFBB4ABC4908313846FFF7A2FDB7
:106DF00000BF00BF48E03222A91DB84806F05EF887
:106E000042E0B64EB61D3188E889814212D1002297
:106E10003146AF48008881DF044600BF2746002F77
:106E200007D000BFAB4AAC4918313846FFF782FDA6
:106E300000BF12E000221146A548008881DF044609
:106E400000BF2746002F07D000BFA24AA2491E312B
:106E50003846FFF76FFD00BF00BF15E014E000BF2C
:106E600013219B48008876DF044600BF2746002F89
:106E700007D000BF974A98492F313846FFF75AFD8F
:106E800000BF00BF00E000BF00BFF8BD10B5044662
:106E9000204604F084FE2146914802F006FC20467C
:106EA000FFF7D6FE10BD10B50446204603F08DFE58
:106EB00010BDF8B500BF002350228A490D2004F010
:106EC00028FF054600BF2E46002E07D000BF814A8E
:106ED000814992313046FFF72DFD00BF00BF00BF52
:106EE0000020009001200090684660DF044600BF4B
:106EF0002546002D07D000BF764AB12189002846DB
:106F0000FFF718FD00BF00BF774804F037FF0446C5
:106F100000BF2546002D07D000BF6E4A5921C90089
:106F20002846FFF707FD00BF00BF704804F02FFFA1
:106F3000044600BF2546002D07D000BF654AB32197
:106F400089002846FFF7F6FC00BF00BFF8BD70B50A
:106F500004460D4666480068002803D02046644970
:106F60000968884770BDF0B585B007460D46142105
:106F7000684605F0BCFF2868002818D11422291D96
:106F8000684605F09BFF5B4A1421684604F098FFB1
:106F9000044600BF2646002E07D000BF4D4A4E498A
:106FA000B6313046FFF7C6FC00BF00BF00BF00BFD0
:106FB00005B0F0BD00B585B01421684605F097FF17
:106FC0004D480090012069464874454802F047FB4F
:106FD00005B000BDF8B504460D4616461F464748A5
:106FE000078047480670FFF764FF012000F0BAFCF5
:106FF000FFF7EAFCFFF7DEFFFFF7C2FDFFF79FFD9B
:107000003F48027804210020FFF75CFD3848056006
:107010003C480460F8BD3C480078704710B5044611
:107020003A480078012800D110BD002C08D0FFF7A5
:10703000F2FF012808D1FFF7CEFDFFF7F8FD03E0CE
:1070400074DF01203049087000BFEDE710B5012062
:10705000FFF7E4FFFFF7EBFD10BD70B52B4800789C
:10706000012810D113211A48008876DF044600BF9A
:107070002546002D06D000BF164A25492846FFF7B1
:1070800059FC00BF00BF70BD10B50446214614482E
:1070900002F028FB10BD1D480078704770B540DF36
:1070A000044600BF2546002D07D000BF094A6F21C6
:1070B000C9002846FFF73EFC00BF00BF70BD154960
:1070C00008607047144908607047000030200020B5
:1070D000182000203C6D01002B020000242F00200E
:1070E000A82F0020582F00208D6E0100A76E0100F0
:1070F000202000204F6F0100676F01002820002032
:10710000362000201C2000201B2000201A200020F8
:10711000670300002C2000202420002070B5002BE5
:107120000BD101248C40FE4DEC60FE4CFE4D5126EF
:107130003601AD198600AC510AE001248C40F84DAF
:10714000AC60FA4CF84D51263601AD198600AC51B1
:1071500000BF00BF00BF01248500F34EAD192C60B5
:107160000C0203252C4315042C431D052C433546E6
:1071700051263601AD198600AC5100BF00BF00BFDB
:1071800070BD002906D100BF01228240E44BDA60C5
:1071900000BF06E000BF01228240E14B9A6000BFC1
:1071A00000BF70470246E248006881420DD88A421B
:1071B00009D3E04800684018DD4B1B68C01A9042B4
:1071C00001D9012070470020FCE7D9480068081A5F
:1071D000904201D88A4201D30120F3E70020F1E771
:1071E00070B504460D461646102C00D370BDE0B2B3
:1071F0003246294647DF0121A140084645DF00BF4E
:10720000F4E710B5CC480068CA490860CB4915229C
:10721000920189188860CA480068022804D9C548C4
:107220000068C849891888600020C7490860BBE128
:10723000C648C5490968405C002820D00021C348E1
:10724000C14A12688154C04800688000C04908588B
:10725000002815D1BF49BC4A1268885C00F03AFB8F
:10726000B94909688900BC4A5058BC490978FFF7F8
:1072700088FF0020B44909688900B94A50508EE15E
:10728000B14800688000B2490858AA490968884294
:1072900018D3B049AC4A1268885C00F01BFBAF4AB7
:1072A000127801235A401146A74A12689200AA4B4D
:1072B0009858FFF766FF0020A34909688900A84A8B
:1072C00050506CE1A048006802287DD29E480068BA
:1072D00080009F490858A3490860984815218901F2
:1072E000401899490968890040589F4908609648A4
:1072F000006880009A490858002831D1924A1268E3
:107300009200954B9958934A8F4B1B68D05C012390
:107310000322FFF703FF01208B4909688900904A87
:10732000505001218548C164152189014018C06869
:107330008C490968884208D901208649824A126826
:10734000895C8900784A89180860864801687B480A
:107350001522920180187C4A1268920081501EE129
:1073600019E001217548C16401461522920189186E
:10737000C8687D490968FFF715FF00280BD06F49E1
:10738000152292018918C86876490968FFF70AFF33
:10739000002800D000E0E4E700BF6848152189011B
:1073A0004018C06870490968884208D363481521AD
:1073B00089014018C0686B490968884213D35F4847
:1073C00015218901401800E021E0C068664909687C
:1073D000884211D25948152189014018C068614975
:1073E0000968884208D301205A49574A1268895CC3
:1073F00089004D4A891808605A4800684F4915228B
:1074000092018918504A126892008850C7E04E488D
:10741000006880004E4908585249086049481521C3
:107420008901411848480068801E800008584E496C
:10743000086045480068800049490858002832D152
:10744000414A12689200444B9958424A3E4B1B688D
:10745000D05C01230322FFF761FE01203A4909684D
:1074600089003F4A505001213648C16415218901E5
:107470004018C0683B490968884208D9012035494D
:10748000314A1268895C8900274A891808603548A2
:1074900001682C481522920182182B480068801E32
:1074A000800011507BE019E001212648C1640146AB
:1074B000152292018918C8682B490968FFF772FEE6
:1074C00000280BD01F49152292018918C868254948
:1074D0000968FFF767FE002800D000E0E4E700BF7E
:1074E0001848152189014018C0681F490968884259
:1074F00008D31448152189014018C0681949096842
:10750000884238D30F48152189014018C0681649B0
:107510000968884238D20B4815218901401825E0B6
:1075200000050050031F020000600040031F01001F
:1075300038200020502000205420002000A00040CF
:1075400060200020009000404420002058200020AF
:10755000F42F00205C200020043000206420002054
:1075600014300020482000204C200020C068DD4955
:107570000968884208D30120DB49DC4A1268895C2B
:107580008900DB4A89180860D6480168D948152265
:1075900092018218D5480068801E80001150D3489F
:1075A0000068401CD1490860D0480068D249096889
:1075B000884200D23CE610BD10B504460220CF49F7
:1075C0000870230005F017FE05040708090A0B00E0
:1075D000FFF717FE03E002E001E000E000BF00BF9C
:1075E000C64810BD70B504462078002802D0207827
:1075F000042802DD0020C04370BD607C030005F05C
:10760000FAFD06040B121A21282F0920BC49086133
:107610006420BC49086026E00920B9490861FF20C0
:10762000B84908601FE00620B54908617D20C00008
:10763000B449086017E00320B14908616420B149EA
:10764000086010E00120AE490861FF20AD490860E4
:1076500009E00020AA490861FF20AA49086002E069
:107660000020C043C8E700BFA5480069A649085CE0
:10767000A64908602078A0490860002019E0611C34
:10768000095C8200A24B995082009958032305227D
:10769000120707252D0252198D00535100BF0021FA
:1076A00082009C4B995021460D31095C8E4A115441
:1076B000401C914909688842E1D301209649C8607D
:1076C00000208F4988608F4800689449086092497B
:1076D0001522920189188860002089494860042099
:1076E0008F49086000218E48C038C16081604160C8
:1076F00001608148006802281DD901207D49C860C9
:107700000020884988607F4800688449086079497A
:1077100089188860002083494860042082490860F5
:1077200000218148C038C1608160416001607448B7
:1077300000697C49086100251EE0794BC03BAE0022
:107740009919694B5B5D9B00694E9A196E00631D28
:10775000985DFFF745FD6449495D8900644BCA188F
:107760006900491C631D585C6D49B839FFF738FD45
:1077700000206E4948556D1C5F480068854201D263
:10778000022DDADB02251FE0674BC03BAE1EB600C0
:107790009919554B5B5D9B00554E9A196E00631D00
:1077A000985DFFF71DFD5049495D8900504BCA188F
:1077B0006900491C631D585C5B49B839FFF710FD2F
:1077C00000205A4948556D1C4B4800688542DBD360
:1077D00057484EDF0120504908604748006802289A
:1077E00002D9012043490860012052490870002055
:1077F00002E77FB504460D464E480078002802D1C6
:1078000040480068451BA0004B490D5001204749E6
:1078100008550021684601700171FA21029100218A
:1078200041714649039150DF7FBD7FB504460D4647
:10783000002008E08100695882003F4B99500121E7
:107840003A4A1154401CA042F4D30021684601700A
:107850000171FA210291002141713849039150DFF1
:107860007FBD2E490860704732490870704770B577
:107870000546002D0AD00120274908601E480068EF
:10788000022826D901201B49086022E00120224954
:10789000486019480068022802D90120154948604B
:1078A000002412E01049085D00F014F8214A127813
:1078B00001235A401146A200154B9858FFF761FC6E
:1078C0000020A100134A5050641C0B4800688442F9
:1078D000E8D370BD1A49064A51231B01D218830010
:1078E000D1507047482000205C2000204420002018
:1078F0000060004000900040602000203C200020FC
:1079000000A500405020002038D20100382000207F
:10791000043000201430002000A00040542000203B
:1079200000A2004000950040009200405820002036
:10793000B975010064200020F42F0020A08601000A
:10794000001F030070B5049C032905D0052907D149
:107950000025784E357003E00025774E357000BF66
:1079600000BF70BD7CB50546002D0ED003F0D0F9E8
:10797000044600BF2646002E06D000BF6FA24E214F
:107980003046FEF7D7FF00BF00BF0A216846C1801E
:1079900040218180704800907049684603F018FAD1
:1079A000044600BF2646002E06D000BF63A2542125
:1079B0003046FEF7BFFF00BF00BF20467CBDFFB5CD
:1079C00083B01E465B480078012802D1112007B021
:1079D000F0BD63480068002803D0002060490968B2
:1079E00088470120534908705E490498486005980B
:1079F0000881039808704E810D46297801AA5748DE
:107A000003F0AAFA044600BF2746002F06D000BFA5
:107A10004AA271213846FEF78DFF00BF00BF2989B9
:107A200088198107890F01D1012100E00021002977
:107A300009D100BF072700BF40A27C210720FEF725
:107A400079FF00BF00BF6B892A8901A8696803F02C
:107A50002CFB044600BF2746002F06D000BF37A2EC
:107A600080213846FEF766FF00BF00BF00BF3148E7
:107A700000780128FBD03A480068002803D0012094
:107A80003749096888472046A1E7FFB583B0064615
:107A900029480078012802D1112007B0F0BD3048F4
:107AA0000068002803D002202D490968884701207A
:107AB000214908702C4904984860059808810E7087
:107AC000069848810D46297801AA244803F044FA13
:107AD000044600BF2746002F06D000BF17A2AE21E4
:107AE0003846FEF727FF00BF00BF6B892A8901A92E
:107AF000686803F03FFB044600BF2746002F06D00E
:107B000000BF0EA2B1213846FEF714FF00BF00BF30
:107B100000BF094800780128FBD011480068002800
:107B200003D003200E49096888472046B5E70C4971
:107B30000860704768200020692000202E2E5C2EEF
:107B40002E5C2E2E5C4170705C666C6173685C66A6
:107B50006C6173682E63000045790100702000207D
:107B60006C200020243000203030002010B500218F
:107B7000084600F07BFA0021022000F077FA00208E
:107B800010BDF0B587B006460825002400BF0DE003
:107B9000304605F060FA0746A000FA4A1158384608
:107BA00005F074FA00D803E0601CC4B2AC42EFDB0D
:107BB00000BFAC4202DB002007B0F0BD002C01D1B9
:107BC0006420F9E7F049085D05F045FA611EEE4AC8
:107BD0000590515C125D881A05F032FAA200E94B5B
:107BE00002909958621E9200985805F0E3F90190AE
:107BF000029905F0E7F90490304605F02CFA02905E
:107C0000A000E04A1158029805F0D4F903900499B5
:107C100005F0D8F90746059905F07BF9069005F0BF
:107C200021FAC0B2C8E770B504460D46D7480078BF
:107C300014281ADAD5484078022816D1D34880781B
:107C4000002812D10120D2490870D24800780A28B1
:107C500010DD0120CD498870CF480068002809D088
:107C60000878CD490968884704E00020C8490870B1
:107C7000C849087070BD10B502461378002004E0B2
:107C8000145C9C4200DA135C401C8842F8DB184606
:107C900010BD70B506460C460025002002E0315CA0
:107CA0004D19401CA042FADB012C0ADD214630466A
:107CB000FFF7E1FF2D1A611E284605F0A5F8C0B2B6
:107CC00070BD2146284605F09FF8C0B2F8E7F0B530
:107CD00085B004460D4616461421684605F007F99E
:107CE0000027022D02DA304605B0F0BD002007E083
:107CF000215CB14203DB215C6A46D1557F1C401CEC
:107D0000A842F5DBF9B26846FFF7C3FFECE710B510
:107D10000346002003E0441C1C5D1C54401C4C1E08
:107D20008442F8DC481E1A54002010BD02468A42E4
:107D300002DB501AC0B27047881AC0B2FBE7FEB52A
:107D40000C46924800780090944804802046FFF743
:107D500018FF01909248007805281BDA9149904A53
:107D60001278019888548E480078401CC1B28D4822
:107D7000FFF78FFF06468A480078401CC1B23246A2
:107D80008848FFF7A4FF064685480078401C8449D0
:107D900008700FE005218348019AFFF7B8FF05211D
:107DA0008048FFF776FF0646324605217D48FFF7FB
:107DB0008EFF06467C48007800280FD17348017872
:107DC0003046FFF7B3FF282808DA704840780228C9
:107DD00004D16E480078B04200DAFEBD6B480670F0
:107DE0008480724A0021084604F06AF8054600BF04
:107DF0002F46002F07D000BF6DA2FF212B31384640
:107E0000FEF798FD00BF00BF00BFE6E70020704707
:107E100010B570480078012800D110BD00F076F947
:107E200000BFFAE710B55A480078012806D1FFF7DD
:107E3000EFFF58480078401C564908705A480078AF
:107E4000012810D1FFF7E4FF634801880088401C37
:107E5000614A10800F2906DD002011460880524932
:107E60000870FFF7D5FF10BD70B564204749087052
:107E7000022048700020C8708870584800F014F93B
:107E800000F044F9FFF772FE044600BF2546002DBE
:107E900007D000BF46A2FF215D312846FEF74AFD0C
:107EA00000BF00BF00204E49086070BD0120494955
:107EB0000870704735480078704738480088704728
:107EC0003249C8707047314840787047014632489F
:107ED00001600020704770B504460D4640480068B8
:107EE000002804D0294948783D490968884770BD71
:107EF00010B504463B480078844232D0002C09D1AA
:107F000039480078052805D037480078401C3649A4
:107F1000087010BD00203449087032490C70002CE4
:107F200004D0012C07D0022C12D10AE000201749FE
:107F3000487088700CE00120144948700020887057
:107F400006E002201149487001202849087000BF4E
:107F500000BF23480068002803D0E0B22049096828
:107F6000884700BFD5E710B5002000F089F8002849
:107F70003ED1022000F084F8012839D1FFF7B8FF84
:107F800062E0000080200020A0200020AC20002023
:107F90007820002079200020C0200020B22000207E
:107FA0007B200020B42000207C200020277C0100C2
:107FB0002E2E5C2E2E5C2E2E5C4170705C646576DD
:107FC0005C626174746572795C6261747465727903
:107FD0002E6300007D200020A82000203F7D0100AE
:107FE000BC2000207E200020AA2000207A20002033
:107FF000002000F045F8012808D1022000F040F8E8
:10800000012803D10020FFF773FF1DE0022000F0DC
:1080100037F8002818D10220FFF76AFF1C480078C3
:1080200001280ED11B4801780078401C194A1070B5
:10803000022909DD00201649087001201649087040
:1080400002E000201349087010BD10B50446134823
:1080500004600068002804D0114948780F49096875
:108060008847002010BD0E488078704710B58A0000
:1080700005231B07072424021B1984001A5110BD75
:10808000014608480069C840C007C00F704700009B
:108090007A200020AB2000207C200020BC20002083
:1080A000AC200020000500503A490860704710B528
:1080B00039480068002828D0002037490860374830
:1080C000806837490870012036494860344909788A
:1080D0004B22120151430846FF2104F0ABFE410040
:1080E000401884B22B48006800280DD05E216143FF
:1080F00008462F2104F09EFEFF302D3084B2214629
:10810000FF20244A1268904700BF10BD70B50120BF
:10811000254948608120C0002049486000201E4950
:10812000086001201D49086007202ADF044600BFBF
:108130002546002D06D000BF1CA268212846FEF768
:10814000F9FB00BF00BF032107202BDF044600BF5F
:108150002546002D06D000BF14A26B212846FEF74D
:10816000E9FB00BF00BF072026DF044600BF25460D
:10817000002D06D000BF0DA26E212846FEF7DAFBC7
:1081800000BF00BF002004490860012005490860C5
:1081900070BD0000C8200020007100400075004044
:1081A000C420002000700040007300402E2E5C2E82
:1081B0002E5C2E2E5C4170705C6465765C6261742E
:1081C000746572795C6465765F62617474657279F6
:1081D0002E63000010B50446204636DF10BD08B5FA
:1081E000684635DF009836DF009808BD00206549F5
:1081F000086001206449C8606448486001208860C4
:1082000060490860704762480078012800D17047D3
:1082100060480068C007C00F02D05F485F4908602F
:1082200000BFF4E7002057490860401E56494860E7
:108230007047B1203CDF00F09BF80020584A1168DD
:108240000EE0012282400A4209D000BFC306DB0EC5
:1082500001229A40524B80331A6000BF00BF401C7D
:108260002028EED3704770B5B1203CDF044600BF34
:108270002546002D06D000BF4AA284212846FEF7DD
:1082800059FB00BF00BF11DF044600BF2546002D8B
:1082900006D000BF43A28A212846FEF74BFB00BF51
:1082A00000BFFFF7CAFF4549486913DF044600BF16
:1082B0002546002D06D000BF3AA28F212846FEF7A2
:1082C00039FB00BF00BF3D49486904F051FA70BD59
:1082D00000F04EF870477047032038DF012037DF89
:1082E00070477CB505460C46062C00DA7CBD684616
:1082F00071DF062200A90131284604F0DFFD00BF2E
:10830000F4E770B505460C460020210482001143B5
:108310000522120707231B02D218AB00D15000BF61
:1083200034DF70BD0120264908607047F8B5044667
:108330000F46052C00D20524781C7D21C900484336
:10834000009020460121C90304F03DFF7A1C7D23E3
:10835000DB005A4352080023851859412846009AE9
:1083600004F07CFDF8BD0120094908700020704729
:10837000BFF34F8F13481449C860BFF34F8F00BF3E
:10838000FEE700000000014000050140FFFF04007F
:10839000CC200020000401403546526E000601400A
:1083A00000E100E02E2E5C2E2E5C2E2E5C417070C3
:1083B0005C7379735C7379732E6300000010001096
:1083C000000500400400FA0500ED00E001460A4601
:1083D000D078704710B502460023002003E0145CFB
:1083E000E418E3B2401C8842F9DB184610BDFEB524
:1083F00005460F4616460095052F01D20020FEBD0A
:1084000000980078552801D00020F8E72846FFF7AB
:10841000DDFF0446601E285C0190601EC1B2284644
:10842000FFF7D8FF01460198814204D1002E00D009
:1084300034800120E3E70020E1E770B504460D46F3
:10844000F1480068002804D029462046EE4A126808
:10845000904770BD70B504460D46EC480068002892
:1084600004D029462046E94A1268904770BD70B58D
:108470008AB005460E46E64804F044FD84B2002C5E
:1084800001D0142C05DD3221E14804F030FD0AB0A2
:1084900070BD2622DE49684604F010FD0022262128
:1084A000684603F0CBFC6946C884002340220520BF
:1084B000FFF785FA3221D64804F019FD00BFE6E740
:1084C000F3B58BB00446142106A804F010FD552125
:1084D00068460176BB214176012181760721C1766C
:1084E0002646B07802287AD12079012827D1142194
:1084F00001A804F0FCFC552168460171BB214171C3
:10850000012181710A21C171012101720021417291
:10851000FFF7D9FC014668468172FFF7CBFC0146A4
:108520006846C17208210173092101A8FFF752FFB3
:1085300069464873142101A8FFF77FFFD4E0207932
:1085400011281ED11422B34901A804F0B7FC14214C
:1085500001A8FFF772FF00220121C903AE4800689D
:1085600001F0D4FF074600BF0097009F002F06D000
:1085700000BFAAA2AE210098FEF7DCF900BF00BF41
:10858000B2E02079922854D169460877002220462B
:108590000C99FFF72CFF00280FD10220694648777D
:1085A000062106A8FFF716FF69468877142106A85A
:1085B000FFF743FF00200DB0F0BDF07814280FDD69
:1085C000032069464877062106A8FFF703FF69469E
:1085D0008877142106A8FFF730FF0020EBE77CE046
:1085E000F078821F611D8A4804F068FCF078142836
:1085F00011DA8F4A0021084603F062FC054600BFED
:108600002F46002F06D000BF84A2C8213846FEF7AF
:1086100091F900BF00BF002069464877062106A8EF
:10862000FFF7D8FE69468877142106A8FFF705FFF3
:108630005AE02079932857D16946087700222046CE
:108640000C99FFF7D4FE00280ED102206946487726
:10865000062106A8FFF7BEFE69468877142106A802
:10866000FFF7EBFE0020A6E7F07814280EDD0320CC
:1086700069464877062106A8FFF7ACFE6946887769
:10868000142106A8FFF7D9FE002094E7F078821F96
:10869000611D5F480E3004F011FC654A0021084658
:1086A00003F00EFC054600BF2F46002F06D000BF8A
:1086B0005AA2E4213846FEF73DF900BF00BF002072
:1086C00069464877062106A8FFF784FE6946887741
:1086D000142106A8FFF7B1FE06E0B078032803D105
:1086E00020460C99FFF7B6FE002064E7F3B585B08D
:1086F0000446254626462746A878012804D1204668
:108700000699FFF79AFE46E0A878022843D1002296
:1087100020460699FFF76BFE00283CD014216846DE
:1087200004F0E5FB552168460170BB21417003212F
:1087300081700721C1702879902802D0912828D112
:1087400011E0FEF7A8FC002802D0707900F0DBF8F9
:1087500090216846017100214171AA218171072190
:10876000FFF778FE15E09121684601710021417103
:10877000AB2181710721FFF76DFE00F083F8FEF752
:108780008AFC002802D0002000F0BDF8FEF765FC4E
:1087900000BF00BF00BF002220460699FFF727FE5A
:1087A000002804D123480088401C2249088000206A
:1087B00007B0F0BD10B50446002000F0A4F800F0AA
:1087C00061F8FDF732FF02210846FFF79AFD10BD60
:1087D000F8B504460D460D4804600B480560164A7E
:1087E00000210D4801F04BFE064600BF3746002F22
:1087F00007D000BF09A2FF2165313846FEF79AF87D
:1088000000BF00BF0020F8BDD4200020D0200020F1
:108810003C30002044D20100DC2000202E2E5C647D
:1088200065765C70726F746F636F6C2E630000000E
:108830006F840100D8200020B587010010B50446E0
:108840006B49085D00F0CFF810BD10B504466849CB
:10885000085D00F0C3F810BD10B504466548007807
:10886000002804D064480078FFF7E8FF03E062487E
:108870000078FFF7EAFF5F480078012148405D4932
:10888000087010BD10B51E2000F0A8F810BD70B51E
:108890005A4A01215A4801F0F2FD054600BF2C4614
:1088A000002C06D000BF57A232212046FEF742F826
:1088B00000BF00BF002108460CE04D4A115C0322B6
:1088C00005231B07072424021B198C001A5100BF23
:1088D000411C08460428F0D30020FFF7AFFFFF201B
:1088E000F53003F09DFA002403E0E0B2FFF7ADFF9E
:1088F000641C032CF9DBFFF7C5FF70BD10B51E200B
:1089000000F071F810BD70B505463D48006801F0F3
:108910002EFE0020FFF799FF0120FFF796FF0220AF
:10892000FFF793FF2B0004F066FC075705090D11B4
:10893000283F57000120FFF781FF4DE00220FFF79D
:108940007DFF49E00020FFF779FF45E001202A493B
:108950000870002281032A48006801F0D7FD044610
:1089600000BF2646002E06D000BF26A26221304658
:10897000FDF7E0FF00BF00BF2EE002201E49087097
:10898000002241031E48006801F0C0FD044600BFFC
:108990002646002E06D000BF1AA267213046FDF7FA
:1089A000C9FF00BF00BF17E0002013490870002274
:1089B000012189031248006801F0A8FD044600BFA8
:1089C0002646002E06D000BF0EA26C213046FDF7D1
:1089D000B1FF00BF00BF00BF00BF70BD01218140DB
:1089E0000C4A91607047012181400A4AD16070476A
:1089F000E0200020E4200020EC2000205988010025
:108A0000E82000202E2E5C6465765C6770696F2E0E
:108A10006300000000050050F7480078012800D1ED
:108A200070470120F44908700420F44908600120CF
:108A3000F349886008600020F249886000BFEFE7D2
:108A4000ED480078002800D170470020EA490870FE
:108A50000120EB49C86048600020E849086000BF79
:108A6000F2E770B505460C46E7480068002804D0D8
:108A7000E1B22846E44A1268904770BDFEB5002175
:108A80000291019100F002FA00900098012813D0A1
:108A900001A82EDF0646022E01D172B60BE000BF00
:108AA0003746002F06D000BFD8A25A213846FDF71E
:108AB00041FF00BF00BF00BF52E0D9480078032843
:108AC00000DA4EE000240EE0D54A1278121B91B273
:108AD000D44A101902AAFFF78AFC0546002D00D0DF
:108AE00006E0601C84B2CE480078C01EA042EBDCD9
:108AF00000BF002D00D134E0C948007869460989DB
:108B0000884200DA2DE06846008900280AD06846CD
:108B10000089142806DCC3490819C34A6946098933
:108B200003F0CEF9002C0BD0BD480078001BBC49E7
:108B30000870BC480119BA480278BA4804F0BEF976
:108B4000B748017868460089081AB5490870B54ADF
:108B5000684600891118B2480278B24804F0AEF9AC
:108B6000ABE700BF0098012813D062B668460079D1
:108B70002FDF0646022E0BD000BF3746002F06D04F
:108B800000BFA2A291213846FDF7D4FE00BF00BF6E
:108B900000BFFEBD10B50446A1480078002800D1F2
:108BA00010BDFFF76BFF00209D49087082219D4892
:108BB00004F09DF900BFF3E7994909786E2902D3C3
:108BC0000021974A11709749954A12788854944920
:108BD0000978491C924A11707047F8B506460F464D
:108BE000002292499248006801F090FC044600BFC0
:108BF0002546002D06D000BF84A2B6212846FDF7E9
:108C000099FE00BF00BFFFF739FFF8BDF8B5054674
:108C1000286800281DD1684604F05AF86846007894
:108C2000FFF7CAFF834A0021084603F049F90446CA
:108C300000BF2646002E06D000BF74A2C4213046D5
:108C4000FDF778FE00BF00BF7948006801F08FFC97
:108C500000BF00BFF8BD70B504460D462A46214648
:108C6000754804F02BF9002603E0A05D04F037F806
:108C7000761CAE42F9DB71480088401C6F490880C1
:108C800070BD10B50446204604F029F810BD70B53B
:108C900004460D46002C07D000206149087082214F
:108CA000604804F024F900E000BF70BDF0B589B061
:108CB00005460F466248019080200290614803906B
:108CC0008020049060480890002006900E2168469D
:108CD00001750F214175002101775C4803235C4A2F
:108CE00001A9009005A803F0DCFE044600BF26465B
:108CF000002E07D000BF45A2FF2105313046FDF709
:108D000019FE00BF00BF534A0021494801F0B7FBDC
:108D1000044600BF2646002E07D000BF3BA2FF211D
:108D200007313046FDF706FE00BF00BF364805603C
:108D3000FFF786FE09B0F0BD00B585B0142246A14C
:108D4000684604F0BBF8002009E06946095C354A32
:108D5000115433490978491C314A1170401C1128BB
:108D6000F3D3FFF78BFE05B000BD1FB53FA30FCBBC
:108D70006C460FC4002009E06946095C294A115479
:108D800027490978491C264A1170401C0E28F3D344
:108D9000FFF774FE1FBD08B538A0006800900020E2
:108DA00009E06946095C1F4A11541D490978491CAC
:108DB0001B4A1170401C0228F3D3FFF75FFE08BD69
:108DC0003EB52FA2116850689268029200910190FE
:108DD0001348047800200AE06946095C2218114B08
:108DE00099540F490978491C0D4A1170401C0C28F0
:108DF000F2D3FFF743FE3EBDF620002000250040E1
:108E00000020004000210040002100202E2E5C6444
:108E100065765C756172745F6170702E630000002E
:108E2000F0200020A0310020638A01009A19000080
:108E3000FC200020DB8B01006E300020F22000209F
:108E4000A03000202031002000E0D701F8200020D1
:108E50000D8C0100958B01003355AA55AA0207908D
:108E6000059D55BB010781009900000055AA020726
:108E700090059D55BB0107810099000055AA00008F
:108E8000020790059D55BB010781009910B5144854
:108E90004068C105C90D002920D00A46103A104685
:108EA00000280DDA0E4B1C330407240F083CA408DD
:108EB000A4001B598407E40EE3401B069B0F0BE044
:108EC000084B032424021B198408A4001B5984079F
:108ED000E40EE3401B069B0FD8B210BD0420FCE754
:108EE00000ED00E000E100E010B5FEF7DFFF00203C
:108EF000DA4908600120DA4948601820D9494860F9
:108F000010BD10B5D8480078012800D110BDFDF77C
:108F1000BAFBFFF7E9FF002108460CE0D34A115CD9
:108F2000032205231B07072424021B198C001A5156
:108F300000BF411C08460A28F0D30120CA49087026
:108F400000BFE3E770B504462546012D06D1C848A9
:108F5000006801F00CFBFFF7BBF90BE0022D09D113
:108F6000C348006801F003FBFDF75FFB02210846E0
:108F7000FFF7C7F970BD70B50546BE4800780A28EE
:108F80001DD3BD480078012809D1002404E0B74969
:108F9000085D00F059F9641C0A2CF8D308E000249D
:108FA00004E0B249085D00F054F9641C0A2CF8D3BF
:108FB000B148007801214840AF49087070BDAB4905
:108FC000AC4A1278885C00F044F9AA480078401C4A
:108FD000A849087000BFF1E710B5002404E0A349D8
:108FE000085D00F031F9641C0A2CF8D310BD70B58F
:108FF000FFF787FFA148006801F0B9FAFFF7ECFF1F
:109000000021FF202D30FFF791F905460022294667
:109010009A48006801F07AFA044600BF2546002D00
:1090200006D000BF96A288212846FDF783FC00BF2A
:1090300000BF00208F4908708D48006801F097FA42
:1090400000219548FFF772F9054601222946884814
:10905000006801F05BFA044603219048FFF7FBFD2E
:1090600070BD0EB500200090019002900621684668
:10907000FFF737F90A206946887107216846FFF72C
:10908000EAFD0EBD70B5864A0021794801F0F7F976
:10909000044600BF2546002D06D000BF78A2A121BE
:1090A0002846FDF747FC00BF00BF7E4A01217348F8
:1090B00001F0E5F9044600BF2546002D06D000BFAB
:1090C0006FA2A4212846FDF735FC00BF00BFFFF7C3
:1090D000A3FC70BD70B574480078012800D170BD44
:1090E0000120724908706248006801F040FA0021CE
:1090F0006948FFF71BF90546012229465C480068CC
:1091000001F004FA044600BF2546002D06D000BF3A
:109110005BA2B5212846FDF70DFC00BF00BF03216F
:109120006348FFF798FD00BFD9E770B501205E499D
:10913000087003215F48FFF78EFD4D48006801F07D
:1091400016FA0021AF208000FFF7F0F80546022252
:1091500029464748006801F0D9F9044600BF254672
:10916000002D06D000BF46A2C3212846FDF7E2FB32
:1091700000BF00BF03F0BFFD70BD70B54A48007866
:10918000012800D170BD01204849087038480068A6
:1091900001F0EDF900214048FFF7C8F8054601222B
:1091A00029463348006801F0B1F9044600BF25465E
:1091B000002D06D000BF32A2D5212846FDF7BAFB0C
:1091C00000BF00BF03213C48FFF745FD00BFD9E7C2
:1091D00070B504460D4639480078002800D170BDAE
:1091E0002078A62805D06078F02802D0032D00D082
:1091F000F5E7A078030003F0FEFF061304070A0D4D
:109200001013FFF767FF0BE0FFF7F1FE08E0FFF731
:10921000B4FF05E0FFF789FF02E0FFF722FF00BF80
:1092200000BF00BFDBE710B520480078012800D15F
:1092300010BDFDF730FF002801D1FFF701FC002031
:109240001E49087000BFF3E7012181401C4A91606C
:109250007047012181401A4AD16070470071004077
:1092600000730040007500401521002058D2010015
:109270000C210020142100201621002010210020A4
:109280002E2E5C6465765C756172745F6175746FB7
:109290005F64746D2E6300008813000065D20100C6
:1092A000458F0100778F01000A210020082100204E
:1092B00062D201006BD2010068D2010009210020B6
:1092C000000500502E482F49086070472E48008C3A
:1092D000C0B2012810D12C48808C0007000F0BD1A0
:1092E0002948806AF0210840402805D12648C06AF4
:1092F000084201D1012070470020FCE72248008C81
:10930000C0B2012827D12048808C0007000F22D14D
:109310001D48806AF021084205D11B48C06A0842F6
:1093200001D1012070471848806AF02108401028B8
:1093300005D11548C06A084201D10120F2E7124860
:10934000806AF0210840302805D10F48C06A0842E1
:1093500001D10120E6E70020E4E710B5FFF7CEFFDA
:10936000002805D009480A494860C813094988619E
:10937000FFF7ACFF002802D001200749886010BD2C
:109380000024F40018210020C00F00F0DFFF07C008
:1093900000050040006C0040000600400321094821
:1093A00002680A430260084802680A4302600748EC
:1093B000804707480047FEE7FEE7FEE7FEE7FEE7D7
:1093C000FEE7000024050040540500405B930100C7
:1093D000C16001008A88C28070470022D243C280E7
:1093E000704770B586B004460D46AE1D3088218AA0
:1093F00088420CD100200090142231461A3101A875
:1094000003F05CFD694620462268904700BF06B025
:1094100070BD70B590B004460E46002101911C212C
:1094200009A803F064FD08A8007902218843811C83
:1094300008A80171007908218843083008A908713B
:1094400000200A900C900D900E900F9000BF01210B
:1094500068468172BB49018100BF0020089000BFAF
:1094600008A8007801090901491C08A801700078C2
:10947000F0218843103008A9087000BF00BF08A879
:10948000407801090901491C08A841704078F02181
:109490008843103008A9487000BF08A880780621CA
:1094A0008843811C08A88170807808218843014680
:1094B00008A88170807810218843014608A881702F
:1094C00080784108490008A881700020039002A814
:1094D000039008A804901421684681820021C1826B
:1094E0001421018301A80790A0882346103303AA02
:1094F00009A9A2DF0546284610B070BD70B590B02E
:1095000004460E46002000902020005D002825D053
:109510000020029000BF6846007A01090901491C39
:1095200068460172007AF02188431030694608725B
:1095300000BF00BF6846407A01090901491C68461E
:109540004172407AF021884310306946487200BF6A
:10955000887A06218843801C694688721C2109A8E4
:1095600003F0C5FC08A8007902218843811C08A8E3
:1095700001710079102188432021095D002901D063
:10958000012100E00021090110221140084308A92F
:10959000087100200A900C900D902020005D00289A
:1095A00001D002A800E000200E9000200F9000BF24
:1095B0000121684681716349491C818000BF0020F8
:1095C000089000BF08A8007801090901491C08A8F3
:1095D00001700078F0218843103008A9087000BF9E
:1095E00000BF08A8407801090901491C08A841707A
:1095F0004078F0218843103008A9487000BF08A8BF
:10960000807806218843811C08A881708078082111
:109610008843014608A8817080781021884301465C
:1096200008A8817080784108490008A8817000204E
:10963000039001A8039008A8049014216846818231
:109640000021C182142101830790A088234618338A
:1096500003AA09A9A2DF0546284610B070BDF8B5D7
:1096600004460D46286820600020C043E080697CE5
:109670002020015500BF0121684681705321490116
:10968000018000BF221D69460120A0DF0646002E92
:1096900001D03046F8BD29462046FFF7BAFE2946DC
:1096A0002046FFF72BFF3046F4E770B505460C4621
:1096B0002088102804D0112807D050280FD109E0A5
:1096C00021462846FFF786FE0AE021462846FFF796
:1096D00084FE05E021462846FFF783FE00E000BF38
:1096E00000BF70BD70B586B004460D4614200590CD
:1096F000208B2B4605AA0021A4DF0646002E02D0AF
:10970000304606B070BDE0880F49884217D020204F
:10971000005D002813D00020019002900390049077
:10972000218B68468180012181710021018105A87A
:1097300003900495E08801A9A6DF064600E008260C
:109740003046DEE7660A0000FFFF0000F0B5024683
:109750000C46002035E001238340194623460B4286
:109760002ED0D5680D4205D101235B04D5680D4389
:10977000D56004E003231B04D5688D43D56005251F
:109780002D0707263602AD198600AD59032636048B
:10979000B5430526360707273F02F6198700F5511E
:1097A00005252D0707263602AD198600AD591D4344
:1097B0000526360707273F02F6198700F55100BF37
:1097C000401C2028C7D3F0BDF0B585B0EC48056932
:1097D0000020EC49C86300263DE014207043EA49AC
:1097E000096844180120B040E8490968084230D0AF
:1097F000E068C04368402168084007463946204673
:10980000FFF7A4FFDE480069684003900398002832
:109810000ED003980543E068C043684021680840C3
:10982000009020460099FFF791FF0098074300BF82
:10983000A068A843384001906068284038400290F2
:1098400001990298084303D0226901990298904730
:1098500000BF701CC6B2CE4800788642BDDB05B0A2
:10986000F0BD10B50146002028E014224A43C64B43
:109870001B689A58012383401A421ED00522120702
:1098800007231B02D2188300D25803231B049A43D8
:1098900005231B07072424021B1984001A510522E3
:1098A000120707231B02D2188300D25805231B0777
:1098B000072424021B1984001A51401C2028D4D3E9
:1098C00010BD70B505460C46002C01D1072070BDB7
:1098D00020468107890F01D1012100E000210029E4
:1098E00001D10720F3E7A8480460AA4805700020CA
:1098F000A7490870A5490860A6480078142250437B
:109900000146A148006803F0F2FA0020C043A249D2
:109910008860062001218140A04A116000BF01211A
:1099200000F0F7F80620012181409D4A116000BF38
:109930000020CCE7F8B504460D4616461F4692486F
:109940000068002801D10820F8BD002F01D10720B0
:10995000FAE78F4800788F490978884201DB0420B4
:10996000F2E7284630438A49097814225143864A4F
:10997000126850508648007814214843824909688B
:109980004018456082480078142148437E490968A0
:10999000401886607E480078142148437A49096857
:1099A000401807617A480078207079480078401C98
:1099B000774908702078FFF754FF0020C4E7F0B51E
:1099C000024671480068002801D10820F0BD7048A7
:1099D0000078824201DB0720F8E70020694BD8635A
:1099E0006748046969480068002802D158066A4B34
:1099F000586001209040654B1B681843634B18600A
:109A0000002314205043604D2D684019C36000218D
:109A100040E001238B401846142353435A4D2D68D0
:109A2000EB58034235D02546054202D003231B04E0
:109A30000EE001235B0414255543534E3668AD19DF
:109A4000ED680543142656434F4F3F68F619F560FD
:109A500005252D0707263602AD198E00AD590326C0
:109A60003604B5430526360707273F02F6198F004F
:109A7000F55105252D0707263602AD198E00AD5983
:109A80001D430526360707273F02F6198F00F551BB
:109A900000BF491C2029BCD3002097E710B504461D
:109AA00039480068002801D1082010BD38480078E6
:109AB000844201DB0720F8E72046FFF7D2FE0120B1
:109AC000A04032490968814330480160006800289D
:109AD00003D10120C007304988600020E5E710B5B8
:109AE000024629480068002801D1082010BD2848F6
:109AF0000078824201DB0720F8E714205043224C13
:109B0000246803191E4800691C6820400860002072
:109B1000ECE710B5002819DA224A03071B0F083BAF
:109B20009B089B00D2588307DC0EFF23A3409A4377
:109B30008B071B0E8407E40EA3401A43194B04073E
:109B4000240F083CA408A4001A5118E0144A032367
:109B50001B02D21883089B00D2588307DC0EFF2318
:109B6000A3409A438B071B0E8407E40EA3401A43BD
:109B70000B4B032424021B198408A4001A5110BDA6
:109B800000050050406100401C21002020210020E1
:109B900025210020242100200063004080E200E015
:109BA00000E100E01CED00E010B5002819DAF74AEA
:109BB00003071B0F083B9B089B00D2588307DC0E52
:109BC000FF23A3409A438B071B0E8407E40EA34098
:109BD0001A43EE4B0407240F083CA408A4001A51B2
:109BE00018E0EB4A03231B02D21883089B00D258CB
:109BF0008307DC0EFF23A3409A438B071B0E8407C9
:109C0000E40EA3401A43E24B032424021B198408E8
:109C1000A4001A5110BD10B50446DE48846003212B
:109C20001120FFF7C1FF10BD10B501200004DA4973
:109C30004860D94940394860112000F0E3FC112008
:109C400000F0D2FC0120D54908602F20FCF742FA31
:109C50000120D349087010BD10B5112001218140A9
:109C6000CB4A8032116000BF01200004CA498860DD
:109C7000C949403988600120C84948602F20FCF755
:109C800029FA0120C54988600020C64908602F20B4
:109C9000FCF720FA0020C249087010BDF0B502465A
:109CA00028205043C04B1B68C118C0480068401CA6
:109CB00002D1BE48026057E0BC488B680068282487
:109CC0006043B94C246800198068834217D8B748AC
:109CD000006828235843B44B1B68C01880688B6801
:109CE000C31AB248006828246043AF4C24680019A6
:109CF0008360AE4800684862AC48026034E08B681C
:109D0000AA4D2C6828680DE028254543A64E3668E4
:109D1000AD19AD685B1B044628254543A24E366845
:109D2000AD19686A451C07D0282545439E4E366804
:109D3000AD19AD689D42E7D3451C0CD0282545439D
:109D4000994E3668AD19AD68EE1A28254543964FF1
:109D50003F68ED19AE608B60486228256543924EDE
:109D60003668AD196A6200BFF0BDF8B506468F4887
:109D700005682C4609E0B44200D108E025462820B9
:109D80006043894909684018446A601CF3D100BFE8
:109D9000601C00D1F8BDA5420FD18448006828217D
:109DA0004843814909684018406A8049086008466C
:109DB0000068401C01D1FFF74FFF282060437A491B
:109DC0000968401887682820604377490968401867
:109DD000416A28206843744A12688018416228202A
:109DE0006843714909684018446A601C0CD02820F7
:109DF00060436D49096840188068C1192820604394
:109E0000694A12688018816000BFC3E710B511204D
:109E100000F0F1FB10BD10B5142000F0ECFB10BDFC
:109E200070B5044662480068002813D0604A216A71
:109E3000E06912689047054600BF2E46002E07D005
:109E400000BF5CA2FF2164313046FCF773FD00BF08
:109E500000BF02E0E169206A884770BDF8B5534849
:109E60000068401C39D0002700F0FEFB04464D4836
:109E70000168204600F0FBFB06464C48056811E0EF
:109E800028206843484909684418A068B04200D9AE
:109E90000AE0A068361AA068C719656A2046FFF76D
:109EA000BFFF00BF681CEBD100BF4C4800784C4995
:109EB0000978884209D14A480078401CC0B2484914
:109EC0000870022801D10020087045480078800001
:109ED00044490F50FFF79FFF00BFF8BD01463F48C0
:109EE00000783F4A127890421DD03C480078401CD0
:109EF0003A4A107010460078022801D100201070F4
:109F0000364800788000374A10580860254A0868AB
:109F100012688018234A1060104600680002000A88
:109F20001060012070470020086000BFFAE7FEB50E
:109F30001E48006801902C480078009072E000985C
:109F4000C0002A4909684418257867E0182068434A
:109F500061680F18681CC5B2A078A84200D100251E
:109F60003868022802D0032855D141E028217868BA
:109F700048430D4909684618307E002804D07868A7
:109F8000FFF7F3FE0020307646E000001CED00E015
:109F900000E100E0001501404013014000100140C5
:109FA0004C210020382100202821002034210020CD
:109FB000482100202E2E5C2E2E5C2E2E5C536F75B9
:109FC0007263655C6170705F636F6D6D6F6E5C6115
:109FD00070705F74696D65722E630000442100200B
:109FE000452100203C2100202D210020302100208F
:109FF0000CE0FE49096828225143FD4A126888187E
:10A0000000210176F94A416A116000BFF7480068F3
:10A01000401CEED100E000BF00BF00BF6078A84246
:10A0200094D100BF0098411EC9B20091002886D18A
:10A03000EE4801680198814201D00120FEBD002058
:10A04000FCE7F0B50346002426E0E84E36682827F2
:10A050007E43E74F3F68F01986689E4203D98668C1
:10A06000F61A86601CE086689B1B866834190026F9
:10A0700086600676DD4E3568DC4F466A3E6046698E
:10A08000002E08D00E193602360AC66046690661EF
:10A0900016684662156000BFD4480068401CD4D1E1
:10A0A00000BFF0BDFEB50746D04800680290D14819
:10A0B0000078019069E00198C000CF49096845180F
:10A0C0005CE0781C07D03E4628207043C8490968E8
:10A0D0004418676A23E02978182359436A6850189E
:10A0E0002978491C29702978AA78914201D1002148
:10A0F0002970466828217143BD4A12688C1801688E
:10A10000012902D1217E002900D037E08168E16079
:10A11000C1682161016961614169216200BFB7497C
:10A12000E0680968401A0002000AB549884208D26E
:10A13000B249E068096800F09AFA21694018A06005
:10A1400011E0AE48E168006800F091FA00902169E2
:10A150000098814204D921690098081AA06001E0A2
:10A160000020A06000BF0020E06020610120207678
:10A17000801E60623046FFF791FD00BF781CA0D1C1
:10A180002878697888429CD100BF0198411EC9B2E5
:10A19000019100288FD1954801680298814201D031
:10A1A0000120FEBD0020FCE7FEB590480068401C81
:10A1B00034D08E480068282148438D4909684018EA
:10A1C000856800F051FA01908C4804682146019896
:10A1D00000F04DFAC61C8B480078002801D1FFF72B
:10A1E00023FDAE4201D2284600E030460419240285
:10A1F000240A20468449086000BF00F035FA009028
:10A200000199009800F033FAC71C2046019900F02C
:10A210002EFA874201D9FFF7F9FD01E0FFF71CFD97
:10A22000FEBDFEB50020C0430190744804686F482D
:10A2300007686846FFF752FE0546FFF778FE0646B8
:10A24000002D05D001AA21460098FFF7FAFE01264D
:10A250000198FFF727FF002800D00126002E02D02A
:10A260003846FFF7A1FFFEBD4170704770B502464A
:10A270000B465078411C9078884200D1002110781C
:10A28000884201D1002070BD1960507818267043B3
:10A2900055682C182046F6E7FFB581B005460E46F6
:10A2A0001746E900544A126888186946FFF7DEFF2E
:10A2B0000446002C02D1042005B0F0BD012020602E
:10A2C000666000F0D1F9A060E760049820610A9808
:10A2D0006061E900484A126888180099FFF7C4FFD6
:10A2E000FFF799FD0020E7E7F8B504460E46E100C8
:10A2F000414A126888186946FFF7B8FF0546002DE5
:10A3000001D10420F8BD022028606E60E1003A4AC5
:10A31000126888180099FFF7A7FFFFF77CFD00205F
:10A32000F0E738B50446E100334A126888186946F8
:10A33000FFF79CFF0546002D01D1042038BD032006
:10A340002860001F6860E1002B4A12688818009995
:10A35000FFF78AFFFFF75FFD0020EFE710B5002051
:10A360002A4908600021294841608160C1600020BD
:10A370002649403908604860FFF770FD10BD10B5F0
:10A38000FFF74FFF10BDFFB581B00E4617461C46C4
:10A3900020468107890F01D1012100E00021002919
:10A3A00002D1072005B0F0BD002C01D10720F9E74C
:10A3B000FFF752FC16490A980860164806700C48C8
:10A3C000046000250CE0002128206843084A126838
:10A3D000115028206843064A1268801801766D1CC7
:10A3E000B542F0DB28207043041915E03421002029
:10A3F000282100202D21002030210020382100209C
:10A40000FFFF7F004C21002040150140401101401A
:10A41000482100202C2100200320974908709748EC
:10A420000460183400250CE0E900944A126888188A
:10A4300000210170417087704460182179430C1924
:10A440006D1C032DF0DB0020C0438D490860002007
:10A450008C4908708C490870142000F0D3F803214F
:10A460001420FFF7A1FB142000F0BEF80198FFF7BD
:10A47000D2FB00F0F9F885490860002092E770B53A
:10A4800003460C4682480068002801D1082070BDB0
:10A49000002A01D10720FAE7002B01D10720F6E7B7
:10A4A00000211CE028204843794D2D6828580028B9
:10A4B00014D1012528204843754E36683550282090
:10A4C0004843734D2D684019446028204843704D1F
:10A4D0002D684019C26119600020D8E7491C6D48F9
:10A4E00000788142DEDB0420D1E710B500F092F85D
:10A4F000012802D0032804D101E0002403E0012454
:10A5000001E0022400BF00BF204610BDFEB5044696
:10A510000D4616465E480068002801D10820FEBDA1
:10A520005C480078844201D2052D01D20720F6E76D
:10A5300028206043564909680858012801D008209E
:10A54000EDE7282060435249096840184068012817
:10A5500001D1284600E000200746FFF7C6FF3B4632
:10A560002A46214600960190FFF796FED7E770B580
:10A57000044647480068002801D1082070BD4548BE
:10A580000078844201D30720F8E72820604340493F
:10A5900009680858012801D00820EFE7FFF7A5FF58
:10A5A00005462146FFF7A0FEE8E710B538480068E9
:10A5B000002801D1082010BDFFF797FF0446FFF7E0
:10A5C000B0FEF8E710B5044600F04EF82060002019
:10A5D00010BD70B505460E4614463146284600F0BB
:10A5E00046F82060002070BDC206D20E01219140C5
:10A5F000294A11607047C206D20E01219140274AB4
:10A6000011607047C206D20E01219140234A803268
:10A610001160704710B522484068C105C90D002976
:10A6200020D00A46103A104600280DDA1C4B1C3385
:10A630000407240F083CA408A4001B598407E40E57
:10A64000E3401B069B0F0BE0134B032424021B1952
:10A650008408A4001B598407E40EE3401B069B0FEB
:10A66000D8B210BD0420FCE70E484068704702468F
:10A67000501A0002000A70472D21002030210020CE
:10A6800034210020442100204521002038210020D1
:10A69000282100202C21002000E100E000E200E061
:10A6A00000ED00E000150140002314214143F94A68
:10A6B00053541421414389184B80022314214143F0
:10A6C00089188B600023142141438918CB60142121
:10A6D000414389180B611421414389188B807047CD
:10A6E00010B50020EC490880EC490860E949091FD1
:10A6F000087048708870002403E02046FFF7D4FFFC
:10A70000641C1E2CF9D310BDFFB583B004460F4660
:10A7100015460326E148006800280BD1002D06D11C
:10A720000698002803D10220DC49086002E00120DD
:10A73000DA490860D9480068030002F05CFD07FCB4
:10A7400005304D82B7D4FC00D5484069401C08D084
:10A7500001221207126991B2D14A506902F054FBEA
:10A7600002E0012000074069401E01210907096934
:10A7700089B2484302900120000700690004820C5E
:10A7800001200007006980B278430146029821DF6A
:10A790000646002E02D10220C0490860CCE03846AF
:10A7A00020DF0646002E16D1002D11D10698002874
:10A7B0000AD12078042803D10720B84908600AE0AC
:10A7C0000520B649086006E00420B449086002E0AC
:10A7D0000320B2490860AFE0B1484069401C08D08E
:10A7E00001221207126991B2AD4A506902F00CFBC6
:10A7F00002E0012000074069401E012109070969A4
:10A8000089B24843012109070290096989B2794355
:10A8100008462A46029921DF0646002E10D10698E6
:10A8200000280AD12078042803D106209B4908601B
:10A8300006E005209949086002E004209749086075
:10A840007AE097484069401C08D00122120712693B
:10A8500091B2934A506902F0D7FA02E00120000752
:10A860004069401E01210907096989B24843A900CE
:10A87000401861884018012109070290096989B2CE
:10A880007943AA00891862888818069A029921DFFC
:10A890000646002E09D12078042803D106207F49DE
:10A8A000086002E005207D49086045E001200007BE
:10A8B000006980B27843AB00C018029060888208BB
:10A8C0002169029821DF0646002E0BD1002D06D10A
:10A8D0000698002803D107207049086002E006208E
:10A8E0006E49086028E06E484069401C08D001228B
:10A8F0001207126991B26A4A506902F085FA02E0C1
:10A90000012000074069401E01210907096989B239
:10A910004843019001200007006981B2019802F0CC
:10A9200073FA029020DF0646002E02D107205B4911
:10A93000086001E0FFE700BF00BF304607B0F0BD90
:10A94000F0B585B00F275348001F00781421484305
:10A9500050494418E5682078022804D0042823D000
:10A9600005286FD16FE0206903904B48008886026C
:10A970006088801B0490039880190390A088801938
:10A980004519012189020498884206D20498820858
:10A990002846039921DF074605E0FF2201322846B9
:10A9A000039921DF074680E0A06800013D49401877
:10A9B00000890490A0680001401840890390A068B5
:10A9C00000014018406802900298A84205D10399FE
:10A9D000049848436188884202D0A06803280DD1BA
:10A9E00001200007006981B2284602F00DFA2A49C9
:10A9F00009884618304620DF074622E0012000077C
:10AA0000006981B2284602F0FFF9064601200007DE
:10AA1000006980B27043281A800801900120000765
:10AA2000006980B2711C484361884919401A800846
:10AA3000009031462046009B019AFFF765FE0746CD
:10AA400000BF32E030E001200007006981B22846F3
:10AA500002F0DAF90646A0884119012000070069D2
:10AA600080B27043081A80080490A0884019618859
:10AA7000421801200007006980B2711C4843801A07
:10AA80008008039031462046039B049AFFF73CFE62
:10AA900007460AE028320020582100205C210020CF
:10AAA000001000108034002000BF00BF002F02D132
:10AAB0000120F7498870384605B0F0BDFFB581B078
:10AAC000064617460024F24840781E2837D0F04842
:10AAD0000078EF4949784018C4B21E2C02DB2046AA
:10AAE0001E38C4B214206043E949091D0E541420D5
:10AAF000604340180761142060434118029805C85C
:10AB0000CA60886014206043E14A121D80180499CD
:10AB100041801420604380180A9981800025101F0D
:10AB20008078002805D1FFF70BFF0546112D00D1D5
:10AB30000025D7484078401CD549487000E00425DE
:10AB4000284605B0F0BD10B50024D1484078002853
:10AB500007DDFFF7F5FE0446002C02D0112C00D1D2
:10AB60000024204610BDF8B50446C94800781421D9
:10AB70004843C749091D0E5C081F0078142148434B
:10AB8000C349091D401880680001C2490D58C048DA
:10AB9000007814214843BE49091D40184088091F08
:10ABA0000090097814225143B94A121D89180B6983
:10ABB000111F097814225143B54A121D89180846FD
:10ABC000083022463146A847F8BDFEB505460026A6
:10ABD000AF48807801287DD10020AD498870AE480B
:10ABE0000068082811D1022D03D10020AA4908606D
:10ABF00002E00020A9490870FFF7A5FF0646002ED5
:10AC000002D03046FFF7AFFFFEBD022D02D0032D6C
:10AC100079D174E09E480078142148439C49091D6D
:10AC200044189F480088401C9D49088020780228CD
:10AC300007D10846008880026188884201DB012034
:10AC400000E0002007462078052805D192480068DA
:10AC5000072801D1012000E000200290207804287C
:10AC600005D18D480068072801D1012000E00020AF
:10AC70000190207804280BD18948008880026188DF
:10AC8000884205DB84480068002801D1012000E0EB
:10AC9000002000900298002807D10198002804D1D4
:10ACA0000098002801D1002F1FD000207A490860A9
:10ACB0003046FFF758FF76490878FFF7F5FC00208B
:10ACC0007749088072484078401E714948700846AC
:10ACD000007800E01AE0401C0870084600781E2842
:10ACE00003DB084600781E380870FFF72CFF064685
:10ACF000002E02D03046FFF736FF05E003E00D20BE
:10AD0000FFF731FF00E000BF00BF00BF00BF7BE7DF
:10AD100070B5FFF7E5FC0020624908806248406991
:10AD2000401C08D001221207126991B25E4A506994
:10AD300002F06AF802E0012000074069C01E01210C
:10AD40000907096989B248435849086000205449F5
:10AD5000088000BF0DE0002102014E4B9950020116
:10AD6000D21811810201D21891810201D2185181A9
:10AD7000401C0228EFD30820474908604A48406930
:10AD8000401C08D001221207126991B2464A50694C
:10AD900002F03AF802E0012000074069401E01215C
:10ADA0000907096989B2484306460120000700697E
:10ADB00081B2304602F028F8054620DF0446002C18
:10ADC00004D101203249887034490870204670BD92
:10ADD000F8B504460D4600BF30480078002801D180
:10ADE0000820F8BD00BF002C01D10E20F9E7002D8E
:10ADF00001D10E20F5E72068002801D10E20F0E7F0
:10AE0000A08801210907096989B2884202DCA0886B
:10AE1000102801DA0720E4E7E08800282FD0224834
:10AE20004069401C08D001221207126991B21E4AE3
:10AE3000506901F0E9FF02E0012000074069401E6F
:10AE400001210907096989B24843E188A288514371
:10AE5000164A12688918884211D3E088A1884843AD
:10AE600001210907096989B288420ADDA188012206
:10AE70001207126990B201F0DDFF002901D007200E
:10AE8000AFE720798007800F12D00720A9E70000E4
:10AE900024320020803400205C210020502100203A
:10AEA00058210020522100200010001054210020C1
:10AEB000FE480088022801D1042092E7FB48008860
:10AEC0002860FB4800686860F84909880901F94A68
:10AED000891868684860F549098809012068505058
:10AEE000A088F2490988090189180881E088EF499A
:10AEF00009880901891848810027A688E1884E43FE
:10AF000000BF781C87B201200007006980B2B04200
:10AF100005D201200007006980B2361A00E0002641
:10AF200001200007006980B2E14909684018E04942
:10AF3000086001200007006980B2B042E1D9DB4817
:10AF400000880001DB4940188781D8480088401CF0
:10AF5000D6490880002044E73CB5034600BFD648E8
:10AF60000078002801D108203CBD00BF002B01D192
:10AF70000E20F9E7002A01D10E20F5E71868022813
:10AF800005D218680001CB4C2058002801D10720B9
:10AF9000EAE75C68186801940090019C1868000159
:10AFA000C44D4019008948432018019000980001C1
:10AFB0002C4600194089009C2401641924896043AF
:10AFC000009C2401641964680019019CA04201D806
:10AFD0000720C9E7019C0098546010600020C3E777
:10AFE000F8B504460E4615461F4600BFB248007825
:10AFF000002801D10820F8BD00BF002E01D10E208D
:10B00000F9E7002C01D10E20F5E72068022805D2CF
:10B0100020680001A7490858002801D10720EAE765
:10B0200020680001A3494018408921680901A14A0C
:10B030008918098948432168090189184968401815
:10B040006168884201D80720D5E7002D06D0206826
:10B050000001984940180089A84201DA0720CAE790
:10B06000E81921680901934A89180989884201DD94
:10B070000720C0E7304600F05CF9002804D03846CD
:10B0800000F057F9002801D11020B4E7606800F003
:10B0900050F9002801D11020ADE72B463246214659
:10B0A00002200097FFF70AFDA5E7F8B504460E4613
:10B0B00015461F4600BF80480078002801D10820AF
:10B0C000F8BD00BF002E01D10E20F9E7002C01D100
:10B0D0000E20F5E72068022805D220680001754996
:10B0E0000858002801D10720EAE7206800017149CB
:10B0F00040184089216809016E4A89180989484326
:10B10000216809018918496840186168884201D896
:10B110000720D5E7002D06D02068000165494018BA
:10B120000089A84201DA0720CAE7E8192168090165
:10B13000604A89180989884201DD0720C0E7304646
:10B1400000F0F7F8002804D0384600F0F2F80028A4
:10B1500001D11020B4E7606800F0EBF8002801D1BD
:10B160001020ADE72B463246214605200097FFF719
:10B17000A5FCA5E7FFB581B00C4615461E4600BFED
:10B180004D480078002802D1082005B0F0BD00BF6E
:10B19000002C01D10E20F8E70198002801D10E20E3
:10B1A000F3E72068022805D22068000141490858C9
:10B1B000002801D10720E8E7206800013D49401838
:10B1C0004089216809013B4A891809894843216857
:10B1D00009018918496840186168884201D8072028
:10B1E000D3E7002D06D020680001324940180089BD
:10B1F000A84201DA0720C8E7A819216809012D4AE9
:10B2000089180989884201DD0720BEE7019800F00E
:10B2100090F8002804D0304600F08BF8002801D1C7
:10B220001020B2E7606800F084F8002801D11020F7
:10B23000ABE7606881192A46019801F03FFE00954E
:10B24000206800011B490F58002203212046019B62
:10B25000B847002099E7F8B504460D4600BF1648E8
:10B260000078002801D10820F8BD00BF002C01D1D2
:10B270000E20F9E72068022805D2206800010D4958
:10B280000858002801D10720EEE72068000109498D
:10B290004018408921680901064A891809894843EC
:10B2A0002168090189184968401807E052210020E7
:10B2B0005421002080340020502100206168884201
:10B2C00001D80720D0E7606800F033F8002801D1EA
:10B2D0001020C9E723681B011A4FDB1962685B68FD
:10B2E000D01A226812013B46D218118901F08CFD58
:10B2F000002901D00720B7E700202B46024621464F
:10B3000000900420FFF7DAFB06463046ACE7014622
:10B3100000BF0D480078002801D10820704700BF09
:10B32000002901D10E20F9E7084840780860002084
:10B33000F4E701468807800F01D101207047002003
:10B34000FCE700008034002050210020243200203F
:10B35000F7B584B004460F4606980678B01C1F283F
:10B3600003DC2079801C1F2802DD0C2007B0F0BD13
:10B370001F20801B801E85B20295B11C781802A97F
:10B380007DDF03900398002801D00398EEE7206842
:10B39000022808D168460089A84204DC09200190EF
:10B3A000684605890BE0082001902079002804D028
:10B3B0002079A84201DC257901E068460589681CEE
:10B3C000C2B23046711CCEB23A543046721CD6B26C
:10B3D0000199395406980178A81C0818C1B206983A
:10B3E00001700020C2E7F8B505460C462078001D24
:10B3F0001F2801DD0C20F8BD684679DF0646002EC7
:10B4000001D03046F7E703212278501C2070A95460
:10B4100019212278501C2070A954207841196846BF
:10B42000008800F08AFA2178401820700020E2E7B6
:10B43000F8B505460F4616461C466868002801D137
:10B440000720F8BD2078801C298840181F2801DDBE
:10B450000C20F6E72878401CC1B22278501C2070DE
:10B46000B1542178481C207077542A882378981981
:10B47000696801F023FD20782978401820700020A9
:10B48000DFE730B503461078C01C1F2801DD0C2013
:10B4900030BD02241578681C10704C550A241578AC
:10B4A000681C10704C551578681C10704B550020A6
:10B4B000EEE7FFB587B006461D46109C00200690BB
:10B4C00020780590002747E0B900706841180A8885
:10B4D0006846028149884181002203A902A865DFEC
:10B4E00004900498002802D004980BB0F0BD684680
:10B4F000017B099881422ED10698002801D00020B6
:10B5000000E00220019020786946097B41180198EB
:10B5100008181F2801DD0C20E7E70698002809D14C
:10B520002078401C20702278511C08982170A85463
:10B53000012006902078421903A902A865DF049033
:10B540000498002801D00498CFE720786946097B49
:10B550004018207000BF7F1C3088B842B4DC0698C9
:10B56000002806D021780598401C081AC1B2059819
:10B5700029540020B9E7FFB581B0074615460A9E59
:10B58000009602223846049B0299FFF792FF044678
:10B59000002C02D0204605B0F0BD009610222946AE
:10B5A0003846049BFFF785FF0446002C01D0204657
:10B5B000F1E70020EFE701460888062808DB088845
:10B5C0001922D201904205DD0888E04A904201D05C
:10B5D000072070474888062808DB48881922D201CE
:10B5E000904205DD4888D94A904201D00720F0E713
:10B5F0000888D64A904208D04888904205D00888EA
:10B600004A88904201DD0720E3E70020E1E7F8B532
:10B6100006460D4614462078801D1F2801D90C20AF
:10B62000F8BD3046FFF7C7FF0746002F01D0384668
:10B63000F6E705212278501C2070A95412212278A7
:10B64000501C2070A95422785119308800F075F9E7
:10B6500021784018207022785119708800F06DF917
:10B660002178401820700020DAE7F8B505460E462C
:10B6700014462879801CC7B22078801CC0191F2866
:10B6800001DD0C20F8BD781CC1B22278501C20705E
:10B69000B154FF212278501C2070B15422789119A6
:10B6A000288800F04AF9217840182070A8880028DE
:10B6B0000EDDA868002801D10720E3E7AA882378D7
:10B6C0009819A96801F0FAFB2078297940182070B0
:10B6D0000020D7E7FEB507460E461446786B0028D3
:10B6E00001D10720FEBD0020019032E0796B0C22D1
:10B6F000019850430D182879801CC0B20090009822
:10B70000401CC1B22278501C2070B15416212278FE
:10B71000501C2070B15422789119288800F00DF93E
:10B72000217840182070A88800280EDDA86800281D
:10B7300001D10720D6E7AA8823789819A96801F0D3
:10B74000BDFB20782979401820700198401CC0B2B8
:10B7500001903820C15D01988142C7DC0020C1E71B
:10B76000F8B504460F4616460025002030702068C4
:10B77000002809D0324639462046FFF7E9FD054644
:10B78000002D01D02846F8BD6079002808D0314648
:10B790003846FFF728FE0546002D01D02846F2E77F
:10B7A000208900280BDD33463A4601212046083027
:10B7B000FFF73EFE0546002D01D02846E3E720694D
:10B7C00000280BD000202169085632463946FFF781
:10B7D00058FE0546002D01D02846D4E7A08A00284F
:10B7E0000CDD3B4606220221204614300096FFF76E
:10B7F000C2FE0546002D01D02846C4E7A08B0028D4
:10B800000CDD3B460722032120461C300096FFF743
:10B81000B2FE0546002D01D02846B4E7A08C0028D2
:10B820000CDD3B4615221421204624300096FFF7FC
:10B83000A2FE0546002D01D02846A4E7E06A0028B4
:10B8400009D032463946E06AFFF7E1FE0546002D91
:10B8500001D0284697E7206B002809D032463946A8
:10B86000206BFFF702FF0546002D01D028468AE72E
:10B870003820005D002809DD324639462046FFF7B2
:10B8800029FF0546002D01D028467CE728467AE7A7
:10B8900001460889002807D0C868002804D0C86875
:10B8A00000780422104201D1072070470020FCE7F5
:10B8B00001460889002801DD072070470020FCE7C9
:10B8C000F3B593B00D460021129111911398002801
:10B8D00014D01398FFF7DCFF0446002C02D020465A
:10B8E00015B0F0BD12AA09A91398FFF739FF044655
:10B8F000002C01D02046F3E709AE00E00026002D21
:10B9000013D02846FFF7D4FF0446002C01D0204670
:10B91000E6E711AA01A92846FFF722FF0446002CFA
:10B9200001D02046DCE701AF00E0002710A8037932
:10B930003A46017A304672DFD2E702460A70FF20AB
:10B94000000210400012487002207047FFFF000004
:10B9500001464888B74A1288904206DB4888B54AB3
:10B960005288904201DC012070470020FCE738B586
:10B970000546B1480088B14988423BD0B0480078BC
:10B98000401CAF490870AF48007B097888420FDB44
:10B99000A849A948008875DF0446002C07D0A948AB
:10B9A0008069002803D0A74881692046884721E0A4
:10B9B0000020A3490870A348007C00280FD03B2139
:10B9C0009D48008876DF0446002C07D09D4880699A
:10B9D000002803D09B4881692046884700BF9948CA
:10B9E0004069002806D000200090964841696846CA
:10B9F000884700BF38BD70B505461C2229469148CE
:10BA000001F05CFA002090490870286800280BD0EB
:10BA100008228848296801F051FA86487ADF0446EE
:10BA2000002C08D0204670BD82487BDF0446002CE5
:10BA300001D02046F7E70020C0437F49088000205E
:10BA40007F490870814A00218148FEF718FDEAE726
:10BA500010B57F480068FEF78AFD10BD38B57D48F7
:10BA6000FFF776FF002829D17748007800280AD010
:10BA700074484069002820D0002000907148416936
:10BA80006846884719E06E480078002802D16D4862
:10BA9000456801E06B488568002229466C480068CB
:10BAA000FEF734FD0446002C07D066488069002864
:10BAB00003D064488169204688470AE061484069AC
:10BAC000002806D0012000905E48416968468847FA
:10BAD00000BF00205C49087038BD10B50446A0883E
