:020000040001F9
:10600000343B0020818A01009B8A01009D8A0100A7
:106010000000000000000000000000000000000080
:106020000000000000000000000000009F8A010046
:106030000000000000000000A18A0100A38A010006
:10604000A58A0100A58A010053C00100DBB8010048
:10605000A58A010000000000AD8E01001B80010038
:10606000A58A0100A58A010077710100A58A0100B7
:10607000A58A0100A58A0100A58A0100A58A010060
:10608000A58A0100419A0100A58A0100A58A0100A4
:10609000639A0100A58A010085B40100A58A010068
:1060A000A58A0100A58A0100000000000000000090
:1060B00000000000000000000000000000000000E0
:1060C0000348854606F09AFB00480047D766010062
:1060D000343B0020401E00BF00BF00BF00BF00BF18
:1060E00000BF00BF00BF00BF00BF00BF00BFF1D1B5
:1060F00070470000401E00BF00BF00BF00BF00BFD0
:1061000000BF00BF00BF00BF00BF00BF00BFF1D194
:1061100070470000144C144D0646064FF0B4034C73
:10612000024D024E014FF0B4074800470000000046
:10613000000000000000002100000000000000003E
:106140000000000000000000F9FFFFFF016881F37C
:1061500008884068034AEFF305839A42DAD1024C7B
:10616000A646004700000000FFFFFFFF38B500BF54
:10617000FD48FE4B10220F210090002003F075FC1B
:10618000044600BF2546002D06D000BFF8A25021CE
:10619000284600F0B9FB00BF00BF00BF38BD70B596
:1061A00000BFF649042002F0FEFE044600BF25466B
:1061B000002D06D000BFEEA25921284600F0A4FB16
:1061C00000BF00BF00BF70BD70B505460C46E1B210
:1061D000284602F0F4F870BD10B50020E8490870B8
:1061E000E848006803F035FD0020E7490870E749FA
:1061F00008700120E64908700020E649087002F0A6
:1062000036FA10BD70B5FFF7E7FF0120DE490870D0
:106210000122C103DB48006803F0EAFC044600BF2A
:106220002546002D06D000BFD1A27C21284600F0D3
:106230006BFB00BF00BF70BD70B5FFF7CDFF012045
:10624000D24908700320CE49087002225103CD487C
:10625000006803F0CDFC044600BF2546002D06D0A3
:1062600000BFC3A28821284600F04EFB00BF00BF3C
:1062700070BD70B50446207800280CD160780028E5
:1062800009D1A078302806D102F0B0F9002002F040
:10629000EEF901F09EFF207800280CD160780028EC
:1062A00009D1A078002806D102F0A0F9002002F060
:1062B000DEF901F0C3FFB84A1421204605F050F979
:1062C000054600BF2E46002E06D000BFA8A29E2184
:1062D000304600F019FB00BF00BF70BD70B5AF487D
:1062E000006803F0B6FC002205210904AB480068F1
:1062F00003F07EFC044600BF2546002D06D000BFFB
:106300009BA2A721284600F0FFFA00BF00BF70BD86
:1063100010B50446FFF760FF002C0BD0012C02D013
:10632000022C12D10DE0002002F0A1F9062002F0AB
:106330009EF90AE0002002F09AF9012002F097F994
:1063400003E0002002F093F900BF00BF10BD10B5BC
:106350009248006803F07DFC10BD10B50446002C87
:1063600010D18F480078012802D1FFF74BFF0DE0D4
:1063700002F006FA002002F07AF9FFF7E8FF02F0D7
:1063800071F903E0012C01D1FFF7A8FF10BD10B592
:106390000446FFF7DCFF00F03BFE002800D010BDF4
:1063A0002046FFF7B5FF00BFF9E770B5054602F0DC
:1063B0001DF902F0FEF901F042FD0446FFF7A8FFC7
:1063C00070BD70B504462546012D1CD16E4800787D
:1063D000002800D170BD6E480078002806D000204B
:1063E00002F045F9032002F042F905E0002002F036
:1063F0003EF9012002F03BF9654800780121484050
:106400006349087020E0022D1ED160480078002802
:1064100000D1DFE75A480078002815DD5C48007895
:10642000002803D0032002F022F907E0002002F048
:106430001EF953480078401E5149087054480078AE
:10644000012148405249087000BFC3E770B50446B7
:106450000D462946204602F00EF870BD70B5044680
:106460000D46204600F0CDFD70BD70B504460D46CA
:106470002946204602F008FA70BD10B54948017857
:106480000078401C474A10703C2919DD01F088FC57
:106490000020444908703D480078012810D100F0E0
:1064A000B7FD00280CD1404801780078401C3E4AD6
:1064B00010700A2904DD002011460870FFF7BCFEA9
:1064C00010BD10B5044601F00AFD01F069FCFFF7AC
:1064D000D4FF01F069FC01F0A9FC142820DC01F0D4
:1064E000AEFC02281CD100F093FD002818D101F069
:1064F00057FC284800780A2805DA26480078401C0E
:10650000244908700CE00020224908701F480078D8
:10651000002805D100F07CFD002801D1FFF78CFE9A
:1065200001F084FC05280DDC17480078002809D10B
:1065300000F06EFD002805D002F058F802F039F99D
:10654000FFF760FE01F072FC052839DC01F028FC41
:1065500013480078002838D1144801780078401C8E
:10656000124A10700A2923E03B680100A82100208C
:106570002E2E5C6D61696E2E63000000E028002005
:1065800005200020002000200620002007200020F9
:106590000420002009200020C961010014200020EF
:1065A000082000200B2000200A2000200C200020C2
:1065B0000BDD0120B349087000201146087004E08B
:1065C0000020B1490870AF49087010BD3EB5AFA2B8
:1065D000116850689268029200910190002108466B
:1065E0000CE06A46115C032205231B0707242402E2
:1065F0001B198C001A5100BF411C08460C28F0D30F
:10660000002424E00021084608E06A46115C0122CB
:106610008A40A14BDA6000BF411C08460C28F4D325
:10662000FF20F53004F06EFF0021084608E06A46BE
:10663000115C01228A40984B9A6000BF411C0846B9
:106640000C28F4D3FF20F53004F05CFF641C022C0E
:10665000D8DB002108460DE06B461A5C00218B0058
:106660000524240707252D0264199500635100BFF6
:10667000411C08460C28EFD33EBD08B5874800688A
:106680000090002304226946104601F0AAF908BDD3
:1066900008B500200090002304226946104601F04E
:1066A000A0F908BD08B50020009000230422694627
:1066B000104601F0C8F968460078112809D16846EB
:1066C0004078222805D168468078332801D10120FE
:1066D00008BD0020FCE77D20C00004F013FF00BFD0
:1066E0006F4A1E21142004F01BFF054600BF2E46F2
:1066F000002E07D000BF6B4AFF21E631304600F084
:1067000003F900BF00BF00BFFFF730FDFFF747FDF3
:10671000002306226449654800F018FC01F01CFDC6
:1067200001F062FB624801F049FCFFF7BBFF002863
:1067300014D001F01EFDFF20F53004F0E3FE02202E
:1067400055490969C140C907C90F002902D0FFF79F
:106750009FFF03E00221084601F089FD1221554800
:1067600002F0AAF85449554801F0EBFE01F043FF4E
:10677000534A0121534803F0F4F9044600BF25466B
:10678000002D07D000BF474A81218900284600F02C
:10679000BBF800BF00BF4C4A00214C4803F0E1F9B0
:1067A000044600BF2546002D06D000BF3D4A48499B
:1067B000284600F0A9F800BF00BF464A012146481C
:1067C00003F0CFF9044600BF2546002D07D000BFD7
:1067D000344A4121C900284600F096F800BF00BFA6
:1067E00000220121C9033748006803F001FA04467A
:1067F00000BF2546002D07D000BF2A4A3449091D95
:10680000284600F081F800BF00BF00F0DBFB00BFAE
:1068100040DF044600BF2546002D07D000BF214AB7
:106820004321C900284600F06FF800BF00BF01F007
:10683000A0FC04F036FFEBE770477CB504460D463C
:1068400000940195254A0821684604F089FE7CBD24
:10685000F8B504460D46264600BF082D01D101209B
:1068600000E000200746002F06D100BF1CA2FF2138
:106870001B3100F049F800BF00BF316870688847DD
:10688000F8BD0000082000200C2000201E0001029E
:106890000304050E0F10111200050050C4C80100BA
:1068A0003029002070650100736201005B63010004
:1068B0008F6301004D6401005D6401006B640100A1
:1068C000C364010010200020AB63010014200020ED
:1068D00006020000C363010000200020516801008F
:1068E0002E2E5C2E2E5C2E2E5C496E636C756465BC
:1068F0005C6170705F636F6D6D6F6E5C6170705F17
:1069000074696D65722E680070B504460D461646B2
:1069100001F0DFFCFC480068002803D02046FA495B
:106920000968884701F08AFC70BD70B504460D46C1
:106930002A462146F548FFF7E7FF70BD70B50546CA
:106940002868002810D13B21F148008876DF0446F2
:1069500000BF2646002E06D000BFEEA2E42130463E
:10696000FFF7D2FF00BF00BF70BD10B5044600BFE7
:10697000E8A2EA212046FFF7C7FF00BF10BD10B50F
:106980000446EB480068002803D02046E84909681F
:10699000884710BD3EB500BF68460078010909016F
:1069A000491C009168460078F0218843103000901F
:1069B00000BF0F22DFA168467CDF044600BF2546EA
:1069C000002D07D000BFD3A2FF2102312846FFF7D8
:1069D0009BFF00BF00BF002001900290402168464D
:1069E00081806021C18000210181FF21913141819D
:1069F00001A87ADF044600BF2546002D07D000BF5E
:106A0000C4A2FF2110312846FFF77EFF00BF00BF60
:106A10003EBDF7B598B004460D461A980890002080
:106A200005900690079002AF042D0AD900BF0120FF
:106A3000009000BFB7A2FF211F31FFF765FF00BF25
:106A400000BFC048006801903C2109A805F09FFDE7
:106A5000002002900390049002200990012108A8D0
:106A600041726846818508A90C91012110A8018016
:106A700001A91191002C12D0002D10D0207861783E
:106A8000090208433880022D08D9AA1EA11C05A8B6
:106A900005F064FD0220B88005A9B96015970021B2
:106AA00009A804F07FFA064600BF0096009E002E5B
:106AB00007D000BF97A2FF2142310098FFF724FFC3
:106AC00000BF00BF1BB0F0BD1E209F4908800846D4
:106AD000807840084000401C887008468078022179
:106AE000884399498870084680781C2188430C3077
:106AF000954988700846807820218843924988709B
:106B00000720C87010200871704730B587B01C216D
:106B1000684605F03CFD002000900520C003019070
:106B20000F20000402900321684601730021C181F7
:106B300001748648059086480690684604F0CDFAB0
:106B4000044600BF2546002D07D000BF71A2FF21DB
:106B500064312846FFF7D8FE00BF00BF07B030BD44
:106B600030B585B01421684605F011FD0021684656
:106B7000017000200190684601727D21C9000182E8
:106B8000744801886846418273DF0446002C01D1B5
:106B9000082C0CD000BF2546002D07D000BF5DA2F9
:106BA000FF21A4312846FFF7AFFE00BF00BF02203F
:106BB0006949087005B030BD70477047704770B5BF
:106BC00004460D4665480078012803D10020FFF7F0
:106BD000D6FE02E00120FFF7D2FE70BDF8B50546F3
:106BE0002888172877D008DC10280FD0112829D042
:106BF00013285CD014286FD1C0E019286DD0392833
:106C00006CD052286CD05528F5D1E5E0A8884049D1
:106C1000088001205149087000204F490870504AEF
:106C2000042104F09DFC044600BF2746002F07D036
:106C300000BF38A2FF21F2313846FFF765FE00BFE2
:106C400000BFDDE00020C0433149088000204349F7
:106C5000087044480068022811D1434A04210020EA
:106C600004F07EFC044600BF2746002F06D000BF7C
:106C700028A23E493846FFF747FE00BF00BFFFF796
:106C80006FFFFFF79AFF364A0421002004F068FCEA
:106C9000044600BF2746002F07D000BF1DA2432196
:106CA000C9003846FFF730FE00BF00BFA8E0264A03
:106CB0000021174800887FDF044600BF2746002FC9
:106CC00007D000BF13A2112149013846FFF71CFE6F
:106CD00000BF00BF94E04BE091E07BE07BE0FFE78A
:106CE000002211460A480088A9DF044600BF274653
:106CF000002F07D000BF07A24521C9003846FFF783
:106D000003FE00BF00BF7BE024200020EFBEADDE0D
:106D1000182000202E2E5C2E2E5C2E2E5C417070D2
:106D20005C626C655C6E72665F626C652E6300000F
:106D30001C2000204E5A4A2D694861707079536CAE
:106D400065657000C8C80100302000203D69010061
:106D50006B690100282000201B2000201A20002041
:106D6000BF6B01002C200020BD6B01000902000058
:106D70003222A91DB34805F0F1FB41E0B14EB61D2A
:106D80003188E889814212D100223146AE4800881C
:106D900081DF044600BF2746002F07D000BFAB4A63
:106DA0004721C9003846FFF7AFFD00BF11E00022C0
:106DB0001146A548008881DF044600BF2746002F02
:106DC00006D000BFA14AA2493846FFF79DFD00BF8B
:106DD00000BF15E014E000BF13219B48008876DF58
:106DE000044600BF2746002F07D000BF974A9849A6
:106DF00011313846FFF788FD00BF00BF00E000BF3B
:106E000000BFF8BD10B50446204604F03AFA21460A
:106E1000904801F0BCFF2046FFF7E0FE10BD10B522
:106E20000446204603F043FA10BDF8B500BF002326
:106E3000502289490D2004F0DEFA054600BF2E4697
:106E4000002E07D000BF814A814974313046FFF7D8
:106E50005BFD00BF00BF00BF00200090012000903C
:106E6000684660DF044600BF2546002D07D000BFFE
:106E7000764A77497B312846FFF746FD00BF00BFC1
:106E8000764804F0EDFA044600BF2546002D07D0F1
:106E900000BF6E4A6E497F312846FFF735FD00BFBF
:106EA00000BF6F4804F0E5FA044600BF2546002DF8
:106EB00007D000BF654A664983312846FFF724FDA5
:106EC00000BF00BFF8BD70B504460D4665480068B8
:106ED000002803D0204663490968884770BDF0B593
:106EE00085B007460D461421684605F050FB28681A
:106EF000002818D11422291D684605F02FFB5A4A94
:106F00001421684604F02CFB044600BF2646002EE0
:106F100007D000BF4D4A4E4998313046FFF7F4FC88
:106F200000BF00BF00BF00BF05B0F0BD00B585B019
:106F30001421684605F02BFB4C480090012069465F
:106F40004874444801F0FDFE05B000BDF8B50446A4
:106F50000D4616461F464648078046480670FFF70E
:106F600064FFFFF717FDFFF7E1FFFFF7CEFDFFF727
:106F7000ABFD012000F008FD3E480278042100200E
:106F8000FFF747FD374805603B480460F8BD3B48C4
:106F90000078704710B5044639480078012800D1C0
:106FA00010BD002C08D0FFF7F2FF012808D1FFF731
:106FB000D7FDFFF702FE03E074DF01202F490870C0
:106FC00000BFEDE710B50120FFF7E4FFFFF7F5FD87
:106FD00010BD70B52A480078012811D113211A4834
:106FE000008876DF044600BF2546002D07D000BF8D
:106FF000164ADB2189002846FFF786FC00BF00BF48
:1070000070BD10B504462146124801F0DDFE10BDEA
:107010001B480078704770B540DF044600BF254626
:10702000002D06D000BF094A16492846FFF76CFC20
:1070300000BF00BF70BD1449086070471349086065
:1070400070470000942C002018200020146D0100CF
:107050003E020000182D0020C82C0020056E010003
:107060001F6E010020200020C76E0100DF6E0100AE
:1070700028200020362000201C2000201B2000207B
:107080001A2000207D0300002C2000202420002056
:1070900070B5002B0BD101248C40FE4DEC60FE4CF2
:1070A000FE4D51263601AD198600AC510AE001248F
:1070B0008C40F84DAC60FA4CF84D51263601AD19B4
:1070C0008600AC5100BF00BF00BF01248500F34E15
:1070D000AD192C600C0203252C4315042C431D050F
:1070E0002C43354651263601AD198600AC5100BF00
:1070F00000BF00BF70BD002906D100BF0122824041
:10710000E44BDA6000BF06E000BF01228240E14BA1
:107110009A6000BF00BF70470246E24800688142A3
:107120000DD88A4209D3E04800684018DD4B1B683F
:10713000C01A904201D9012070470020FCE7D948CD
:107140000068081A904201D88A4201D30120F3E76F
:107150000020F1E770B504460D461646102C00D30A
:1071600070BDE0B23246294647DF0121A140084602
:1071700045DF00BFF4E710B5CC480068CA49086095
:10718000CB491522920189188860CA4800680228F4
:1071900004D9C5480068C849891888600020C749D3
:1071A0000860BBE1C648C5490968405C002820D09A
:1071B0000021C348C14A12688154C0480068800059
:1071C000C0490858002815D1BF49BC4A1268885CDC
:1071D00000F03AFBB94909688900BC4A5058BC49DB
:1071E0000978FFF788FF0020B44909688900B94A87
:1071F00050508EE1B14800688000B2490858AA4951
:107200000968884218D3B049AC4A1268885C00F01B
:107210001BFBAF4A127801235A401146A74A126855
:107220009200AA4B9858FFF766FF0020A34909680F
:107230008900A84A50506CE1A048006802287DD21D
:107240009E48006880009F490858A34908609848F4
:1072500015218901401899490968890040589F49BA
:1072600008609648006880009A490858002831D183
:10727000924A12689200954B9958934A8F4B1B681B
:10728000D05C01230322FFF703FF01208B4909682B
:107290008900904A505001218548C1641521890117
:1072A0004018C0688C490968884208D9012086497D
:1072B000824A1268895C8900784A89180860864881
:1072C00001687B481522920180187C4A126892005E
:1072D00081501EE119E001217548C1640146152263
:1072E00092018918C8687D490968FFF715FF0028D1
:1072F0000BD06F49152292018918C8687649096830
:10730000FFF70AFF002800D000E0E4E700BF68486C
:10731000152189014018C06870490968884208D35E
:107320006348152189014018C0686B490968884283
:1073300013D35F4815218901401800E021E0C0689F
:1073400066490968884211D25948152189014018B7
:10735000C06861490968884208D301205A49574AE0
:107360001268895C89004D4A891808605A4800688B
:107370004F49152292018918504A1268920088508C
:10738000C7E04E48006880004E49085852490860DE
:10739000494815218901411848480068801E80002D
:1073A00008584E4908604548006880004949085817
:1073B000002832D1414A12689200444B9958424AFF
:1073C0003E4B1B68D05C01230322FFF761FE0120C6
:1073D0003A49096889003F4A505001213648C16442
:1073E000152189014018C0683B490968884208D9BD
:1073F00001203549314A1268895C8900274A891879
:107400000860354801682C481522920182182B48E3
:107410000068801E800011507BE019E001212648A1
:10742000C1640146152292018918C8682B49096870
:10743000FFF772FE00280BD01F4915229201891810
:10744000C86825490968FFF767FE002800D000E0FA
:10745000E4E700BF1848152189014018C0681F499A
:107460000968884208D31448152189014018C0686A
:1074700019490968884238D30F48152189014018F5
:10748000C06816490968884238D20B48152189011D
:10749000401825E000050050031F02000060004076
:1074A000031F01003820002050200020542000201D
:1074B00000A00040602000200090004044200020F8
:1074C00058200020642D00205C200020742D002016
:1074D00064200020842D0020482000204C20002023
:1074E000C068DD490968884208D30120DB49DC4ACD
:1074F0001268895C8900DB4A89180860D6480168EF
:10750000D948152292018218D5480068801E800053
:107510001150D3480068401CD1490860D048006829
:10752000D2490968884200D23CE610BD10B5044635
:107530000220CF490870230005F0A7F905040708C9
:10754000090A0B00FFF717FE03E002E001E000E08C
:1075500000BF00BFC64810BD70B5044620780028A3
:1075600002D02078042802DD0020C04370BD607C7A
:10757000030005F08AF906040B121A21282F0920AE
:10758000BC4908616420BC49086026E00920B9496B
:107590000861FF20B84908601FE00620B54908616E
:1075A0007D20C000B449086017E00320B14908619C
:1075B0006420B149086010E00120AE490861FF2055
:1075C000AD49086009E00020AA490861FF20AA49E6
:1075D000086002E00020C043C8E700BFA54800697A
:1075E000A649085CA64908602078A04908600020E8
:1075F00019E0611C095C8200A24B995082009958E5
:1076000003230522120707252D0252198D0053511D
:1076100000BF002182009C4B995021460D31095C2E
:107620008E4A1154401C914909688842E1D30120D7
:107630009649C86000208F4988608F480068944947
:1076400008609249152292018918886000208949B2
:10765000486004208F49086000218E48C038C1600E
:107660008160416001608148006802281DD90120C5
:107670007D49C8600020884988607F480068844947
:10768000086079498918886000208349486004208F
:107690008249086000218148C038C1608160416032
:1076A0000160744800697C49086100251EE0794B3F
:1076B000C03BAE009919694B5B5D9B00694E9A19FE
:1076C0006E00631D985DFFF745FD6449495D8900C3
:1076D000644BCA186900491C631D585C6D49B83970
:1076E000FFF738FD00206E4948556D1C5F48006863
:1076F000854201D2022DDADB02251FE0674BC03B39
:10770000AE1EB6009919554B5B5D9B00554E9A19FC
:107710006E00631D985DFFF71DFD5049495D8900AE
:10772000504BCA186900491C631D585C5B49B83945
:10773000FFF710FD00205A4948556D1C4B48006862
:107740008542DBD357484EDF012050490860474847
:107750000068022802D901204349086001205249EB
:107760000870002002E77FB504460D464E480078B9
:10777000002802D140480068451BA0004B490D502D
:107780000120474908550021684601700171FA211E
:107790000291002141714649039150DF7FBD7FB5C1
:1077A00004460D46002008E08100695882003F4BE6
:1077B000995001213A4A1154401CA042F4D30021AF
:1077C000684601700171FA21029100214171384926
:1077D000039150DF7FBD2E49086070473249087021
:1077E000704770B50546002D0AD001202749086072
:1077F0001E480068022826D901201B49086022E0A3
:1078000001202249486019480068022802D9012055
:1078100015494860002412E01049085D00F014F892
:10782000214A127801235A401146A200154B98585C
:10783000FFF761FC0020A100134A5050641C0B4864
:1078400000688442E8D370BD1A49064A51231B01DF
:10785000D2188300D1507047482000205C200020BF
:107860004420002000600040009000406020002084
:107870003C20002000A5004050200020CCC8010082
:1078800038200020742D0020842D002000A000400E
:107890005420002000A200400095004000920040CB
:1078A000582000202D75010064200020642D002048
:1078B000A0860100001F030070B5049C032905D0B9
:1078C000052907D10025794E357003E00025784E53
:1078D000357000BF00BF70BDFEB50646354628882E
:1078E00081B26A46734802F0A9FE044600BF2746EB
:1078F000002F06D000BF70A233213846FFF704F8EE
:1079000000BF00BFA88983B2288982B2684669682F
:1079100002F03DFF044600BF2746002F06D000BFFF
:1079200065A235213846FEF7EFFF00BF00BFFEBD60
:10793000FEB506463546288881B26A465D4802F0A3
:107940007DFE044600BF2746002F06D000BF5AA286
:1079500040213846FEF7D8FF00BF00BFA9898BB28F
:1079600029898AB26946686802F076FF044600BF3A
:107970002746002F06D000BF4FA242213846FEF70F
:10798000C3FF00BF00BFFEBD7CB50546002D0ED075
:1079900002F030FD044600BF2646002E06D000BF90
:1079A00045A24F213046FEF7AFFF00BF00BF1E21AA
:1079B0006846C18040218180464800903D49684624
:1079C00002F078FD044600BF2646002E06D000BF18
:1079D00039A255213046FEF797FF00BF00BF204671
:1079E0007CBDFFB581B005460E4617462F4800788E
:1079F000012802D1112005B0F0BD01202B490870EB
:107A0000354846608760056033490498C860334A4A
:107A10001021314803F0A4FD044600BF0094009CEF
:107A2000002C06D000BF24A267210098FEF76CFF4F
:107A300000BF00BF01E003F034FE1C4800780128BD
:107A4000F9D02046D7E7FFB581B005460E46174668
:107A500017480078012802D1112005B0F0BD01209F
:107A6000134908701E484660876005601C490498E9
:107A7000C8601C4A10211A4803F072FD044600BF7A
:107A80000094009C002C06D000BF0BA27F21009820
:107A9000FEF73AFF00BF00BF01E003F002FE04481A
:107AA00000780128F9D02046D7E700007020002098
:107AB00071200020682000202E2E5C2E2E5C2E2EA1
:107AC0005C4170705C666C6173685C666C61736865
:107AD0002E630000B9780100942D0020D9780100B0
:107AE000A42D00203179010010B50021084600F0D6
:107AF00076FA0021022000F072FA002010BDF0B5E5
:107B000087B006460825002400BF0DE0304604F08B
:107B1000EBFD0746A000F94A1158384604F000FE74
:107B200000D803E0601CC4B2AC42EFDB00BFAC4243
:107B300002DB002007B0F0BD002C01D16420F9E782
:107B4000EF49085D04F0D0FD611EED4A0590515CDF
:107B5000125D881A04F0BDFDA200E84B029099580E
:107B6000621E9200985804F06EFD0190029904F094
:107B700072FD0490304604F0B7FD0290A000DF4A89
:107B80001158029804F05FFD0390049904F063FD1E
:107B90000746059904F006FD069004F0ACFDC0B25E
:107BA000C8E770B504460D46D648007814281ADA9E
:107BB000D4484078022816D1D2488078002812D1C3
:107BC0000120D1490870D14800780A2810DD012031
:107BD000CC498870CE480068002809D00878CC4984
:107BE0000968884704E00020C7490870C749087041
:107BF00070BD10B502461378002004E0145C9C426E
:107C000000DA135C401C8842F8DB184610BD70B5E2
:107C100006460C460025002002E0315C4D19401C50
:107C2000A042FADB012C0ADD21463046FFF7E1FFD6
:107C30002D1A611E284604F037FCC0B270BD2146E3
:107C4000284604F031FCC0B2F8E7F0B585B0044630
:107C50000D4616461421684604F099FC0027022DB3
:107C600002DA304605B0F0BD002007E0215CB142E9
:107C700003DB215C6A46D1557F1C401CA842F5DB22
:107C8000F9B26846FFF7C3FFECE710B503460020E2
:107C900003E0441C1C5D1C54401C4C1E8442F8DC58
:107CA000481E1A54002010BD02468A4202DB501AB8
:107CB000C0B27047881AC0B2FBE7FEB50C469148C7
:107CC00000780090934804802046FFF718FF019049
:107CD0009148007805281BDA90498F4A127801985C
:107CE00088548D480078401CC1B28C48FFF78FFF44
:107CF000064689480078401CC1B232468748FFF7E3
:107D0000A4FF064684480078401C834908700FE0B1
:107D100005218248019AFFF7B8FF05217F48FFF748
:107D200076FF0646324605217C48FFF78EFF064661
:107D30007B48007800280FD1724801783046FFF761
:107D4000B3FF282808DA6F484078022804D16D482C
:107D50000078B04200DAFEBD6A4806708480407840
:107D6000012806D167480078502802DD5020654977
:107D700008706C4A0021084603F0F2FB054600BF7C
:107D80002F46002F07D000BF67A2FF2127313846BA
:107D9000FEF7BAFD00BF00BF00BFDCE70020704760
:107DA00010B500F069F910BD10B5574800780128EA
:107DB00006D1FFF7F5FF55480078401C534908707D
:107DC0005748007801280ED1604801880088401C7F
:107DD0005E4A10800F2906DD0020114608805049B8
:107DE0000870FFF7DDFF10BD70B5642045490870CD
:107DF000022048700020C8708870554800F00AF9C9
:107E000000F03AF9FFF770FE044600BF2546002D4A
:107E100007D000BF44A2FF2158312846FEF774FD69
:107E200000BF00BF00204B49086070BD3548007896
:107E300070473848008870473249C87070473148E9
:107E4000407870470146324801600020704770B5A5
:107E500004460D463F480068002804D02949487868
:107E60003C490968884770BD10B504463A48007817
:107E7000844232D0002C09D138480078052805D03A
:107E800036480078401C3549087010BD0020334941
:107E9000087031490C70002C04D0012C07D0022C42
:107EA00012D10AE000201749487088700CE00120C8
:107EB000144948700020887006E00220114948707B
:107EC00001202749087000BF00BF22480068002831
:107ED00003D0E0B21F490968884700BFD5E710B555
:107EE000002000F086F800283CD1022000F081F844
:107EF000012837D1FFF7B8FF5FE000007C200020A9
:107F00009C200020A8200020742000207520002044
:107F1000BC200020AE20002077200020B0200020D0
:107F200078200020A37B01002E2E5C2E2E5C2E2EAE
:107F30005C4170705C6465765C62617474657279D2
:107F40005C626174746572792E630000A420002065
:107F5000BB7C0100B820002079200020A620002052
:107F600076200020002000F044F8012808D10220EB
:107F700000F03FF8012803D10020FFF775FF1CE057
:107F8000022000F036F8002817D10220FFF76CFF1E
:107F90001B48007801280DD11A4801780078401C50
:107FA000184A1070032908DD002015490870FFF7F2
:107FB000F7FE02E000201349087010BD10B504461A
:107FC000114804600068002804D0104948780E4920
:107FD00009688847002010BD0C488078704710B5AC
:107FE0008A0005231B07072424021B1984001A5149
:107FF00010BD014606480069C840C007C00F704761
:1080000076200020A7200020B8200020A8200020F3
:10801000000500503A490860704710B539480068BB
:10802000002828D000203749086037488068374941
:108030000870012036494860344909784B22120102
:1080400051430846FF2104F045FA4100401884B22C
:108050002B48006800280DD05E21614308462F217F
:1080600004F038FAFF302D3084B22146FF20244A34
:108070001268904700BF10BD70B5012025494860C7
:108080008120C0002049486000201E49086001206E
:108090001D49086007202ADF044600BF2546002D41
:1080A00006D000BF1CA268212846FEF72DFC00BFA9
:1080B00000BF032107202BDF044600BF2546002D0B
:1080C00006D000BF14A26B212846FEF71DFC00BF9E
:1080D00000BF072026DF044600BF2546002D06D03E
:1080E00000BF0DA26E212846FEF70EFC00BF00BFA8
:1080F00000200449086001200549086070BD0000A7
:10810000C42000200071004000750040C020002005
:1081100000700040007300402E2E5C2E2E5C2E2E30
:108120005C4170705C6465765C62617474657279E0
:108130005C6465765F626174746572792E630000B9
:1081400010B50446204636DF10BD08B5684635DF59
:10815000009836DF009808BD0020654908600120BE
:108160006449C860644848600120886060490860CC
:10817000704762480078012800D170476048006865
:10818000C007C00F02D05F485F49086000BFF4E736
:10819000002057490860401E564948607047B1208A
:1081A0003CDF00F09BF80020584A11680EE00122E5
:1081B00082400A4209D000BFC306DB0E01229A406A
:1081C000524B80331A6000BF00BF401C2028EED302
:1081D000704770B5B1203CDF044600BF2546002D36
:1081E00006D000BF4AA284212846FEF78DFB00BFBF
:1081F00000BF11DF044600BF2546002D06D000BF9A
:1082000043A28A212846FEF77FFB00BF00BFFFF78D
:10821000CAFF4549486913DF044600BF2546002DC3
:1082200006D000BF3AA28F212846FEF76DFB00BFA3
:1082300000BF3D49486903F0EBFD70BD00F04EF80A
:1082400070477047032038DF012037DF70477CB567
:1082500005460C46062C00DA7CBD684671DF062216
:1082600000A90131284604F079F900BFF4E770B5A0
:1082700005460C4600202104820011430522120706
:1082800007231B02D218AB00D15000BF34DF70BDF2
:108290000120264908607047F8B504460F46052CB2
:1082A00000D20524781C7D21C90048430090204657
:1082B0000121C90304F0D1FA7A1C7D23DB005A4363
:1082C00052080023851859412846009A04F016F9EF
:1082D000F8BD01200949087000207047BFF34F8F97
:1082E00013481449C860BFF34F8F00BFFEE700007A
:1082F0000000014000050140FFFF0400C8200020ED
:10830000000401403546526E0006014000E100E0E5
:108310002E2E5C2E2E5C2E2E5C4170705C73797359
:108320005C7379732E63000000100010000500409C
:108330000400FA0500ED00E001460A46D0787047D7
:1083400010B502460023002003E0145CE418E3B2F9
:10835000401C8842F9DB184610BDF8B50446274694
:108360003878552801D00020F8BD2046FFF7E4FFFB
:108370000546681E265CC1B22046FFF7E1FFB04209
:1083800001D10120F0E70020EEE770B504460D466C
:1083900079480068002804D029462046764A1268A9
:1083A000904770BD70B504460D46744800680028BB
:1083B00004D029462046714A1268904770BDF3B533
:1083C00085B004462546A87802284AD1207901289C
:1083D00026D11421684604F0DAF855216846017068
:1083E000BB214170012181700A21C17001210171FD
:1083F00000214171FFF723FD014668468171FFF7B7
:1084000015FD01466846C171032101720921FFF77C
:1084100097FF6946487214216846FFF7B6FF27E0C8
:108420002079112824D114225549684604F096F881
:1084300014216846FFF7A9FF00220121C903514812
:10844000006801F0D5FB064600BF3746002F06D076
:1084500000BF4DA27D213846FEF756FA00BF00BF8F
:1084600006E0A878032803D120460699FFF79AFF73
:10847000002007B0F0BDF3B585B00446254626467A
:108480002746A878012804D120460699FFF77DFFEA
:108490003CE0A878022839D12046FFF75EFF00288B
:1084A00034D01421684604F072F8552168460170F2
:1084B000BB214170032181700721C1702879902868
:1084C00002D0912820D10DE0707900F0D0F89021F1
:1084D0006846017100214171AA2181710721FFF7CE
:1084E00061FF11E091216846017100214171AB21CA
:1084F00081710721FFF756FF00F078F8002000F0A7
:10850000B6F8FEF766FD00BF00BF00BF2046FFF7CC
:1085100024FF002804D121480088401C1F490880FE
:10852000002007B0F0BD10B50446002000F09FF811
:1085300000F05CF8FEF7A1F802210846FFF797FE6D
:1085400010BDF8B504460D460C4804600A480560A5
:10855000134A00210B4801F004FB064600BF3746D2
:10856000002F06D000BF08A2F2213846FEF7CCF952
:1085700000BF00BF0020F8BDD0200020CC2000208C
:10858000D8C80100D82000202E2E5C6465765C706F
:10859000726F746F636F6C2E63000000D420002034
:1085A0002785010010B504466B49085D00F0CFF83F
:1085B00010BD10B504466849085D00F0C3F810BD51
:1085C00010B5044665480078002804D06448007857
:1085D000FFF7E8FF03E062480078FFF7EAFF5F4833
:1085E0000078012148405D49087010BD10B51E207B
:1085F00000F0A8F810BD70B55A4A01215A4801F0A0
:10860000B0FA054600BF2C46002C06D000BF57A28A
:1086100032212046FEF778F900BF00BF002108464E
:108620000CE04D4A115C032205231B07072424029A
:108630001B198C001A5100BF411C08460428F0D3B6
:108640000020FFF7AFFFFF20F53002F05BFF0024B2
:1086500003E0E0B2FFF7ADFF641C032CF9DBFFF78A
:10866000C5FF70BD10B51E2000F071F810BD70B5CB
:1086700005463D48006801F0ECFA0020FFF799FF3D
:108680000120FFF796FF0220FFF793FF2B0004F075
:10869000FCF8075705090D11283F57000120FFF787
:1086A00081FF4DE00220FFF77DFF49E00020FFF74A
:1086B00079FF45E001202A490870002281032A48F9
:1086C000006801F095FA044600BF2646002E06D049
:1086D00000BF26A262213046FEF716F900BF00BF98
:1086E0002EE002201E490870002241031E48006847
:1086F00001F07EFA044600BF2646002E06D000BFD9
:108700001AA267213046FEF7FFF800BF00BF17E04E
:1087100000201349087000220121890312480068D3
:1087200001F066FA044600BF2646002E06D000BFC0
:108730000EA26C213046FEF7E7F800BF00BF00BF75
:1087400000BF70BD012181400C4A9160704701213A
:1087500081400A4AD1607047DC200020E0200020E0
:10876000E8200020C1850100E42000202E2E5C645A
:1087700065765C6770696F2E63000000000500502D
:1087800010B570480078012800D110BD01206D4956
:1087900008706D48006801F05CFA04206B490860BD
:1087A00001206B498860086000206A49886000BF2A
:1087B000EBE764480078002800D170470020614949
:1087C000087001206249C860486000205F49086065
:1087D00000BFF2E770B500225F495B48006801F016
:1087E00007FA044600BF2546002D06D000BF5BA255
:1087F0003D212846FEF788F800BF00BF70BD10B5C8
:1088000004465B480078002809D05A4800680028D0
:1088100005D0574801785848564A126890470020BA
:108820005349087055480088401C5449088010BDC1
:1088300051494F4A127888544D490978491C4C4A8D
:1088400011707047F8B50546286800281AD16846A7
:1088500003F08EFD68460078FFF7EAFF00224849E2
:108860004848006801F0C4F9044600BF2646002EBF
:1088700006D000BF39A25D213046FEF745F800BFA3
:1088800000BF00BF00BFF8BD70B504460D462A46C4
:1088900021463D4803F062FE002603E0A05D03F0A0
:1088A0006EFD761CAE42F9DB38480088401C374923
:1088B000088070BD70477047F0B589B005460F4617
:1088C00033480190FF200130029032480390FF208E
:1088D0000130049030480890002006900E21684630
:1088E00001750F214175002101772C4803232C4A83
:1088F00001A9009005A803F024FC044600BF264609
:10890000002E06D000BF15A28D213046FDF7FCFFDA
:1089100000BF00BF234A00211A4801F022F9044693
:1089200000BF2646002E06D000BF0CA28F21304685
:10893000FDF7EAFF00BF00BF0E480560FFF739FFF3
:1089400009B0F0BDF2200020FC20002000250040EE
:108950000020004000210040662600002E2E5C64AE
:1089600065765C756172745F6170702E63000000E3
:10897000EC20002000210020E62F0020F020002025
:108980003D0A0000F8200020B42D0020EE20002039
:10899000E62D0020E62E002000E0D701F420002084
:1089A00045880100FF8701002E482F490860704765
:1089B0002E48008CC0B2012810D12C48808C0007B2
:1089C000000F0BD12948806AF0210840402805D1CA
:1089D0002648C06A084201D1012070470020FCE708
:1089E0002248008CC0B2012827D12048808C000783
:1089F000000F22D11D48806AF021084205D11B4892
:108A0000C06A084201D1012070471848806AF021ED
:108A10000840102805D11548C06A084201D101203C
:108A2000F2E71248806AF0210840302805D10F484B
:108A3000C06A084201D10120E6E70020E4E710B552
:108A4000FFF7CEFF002805D009480A494860C8133F
:108A500009498861FFF7ACFF002802D001200749CF
:108A6000886010BD0024F40008210020C00F00F031
:108A7000DFFF07C000050040006C0040000600401A
:108A80000321094802680A430260084802680A4351
:108A900002600748804707480047FEE7FEE7FEE719
:108AA000FEE7FEE7FEE70000240500405405004015
:108AB0003F8A0100C16001008A88C280704700229D
:108AC000D243C280704770B586B004460D46AE1DD5
:108AD0003088218A88420CD100200090142231462F
:108AE0001A3101A803F03AFD6946204622689047F2
:108AF00000BF06B070BD70B590B004460E460021B0
:108B000001911C2109A803F042FD08A80079022167
:108B10008843811C08A80171007908218843083026
:108B200008A9087100200A900C900D900E900F90EB
:108B300000BF012168468172BB49018100BF00204E
:108B4000089000BF08A8007801090901491C08A87D
:108B500001700078F0218843103008A9087000BF28
:108B600000BF08A8407801090901491C08A8417004
:108B70004078F0218843103008A9487000BF08A849
:108B8000807806218843811C08A88170807808219C
:108B90008843014608A881708078102188430146E7
:108BA00008A8817080784108490008A881700020D9
:108BB000039002A8039008A80490142168468182BB
:108BC0000021C1821421018301A80790A0882346B7
:108BD000103303AA09A9A2DF0546284610B070BDCC
:108BE00070B590B004460E46002000902020005D35
:108BF000002825D00020029000BF6846007A0109B5
:108C00000901491C68460172007AF021884310303E
:108C10006946087200BF00BF6846407A0109090131
:108C2000491C68464172407AF021884310306946F9
:108C3000487200BF887A06218843801C6946887282
:108C40001C2109A803F0A3FC08A80079022188438D
:108C5000811C08A801710079102188432021095D39
:108C6000002901D0012100E000210901102211405A
:108C7000084308A9087100200A900C900D9020204C
:108C8000005D002801D002A800E000200E90002026
:108C90000F9000BF0121684681716349491C8180A2
:108CA00000BF0020089000BF08A800780109090152
:108CB000491C08A801700078F0218843103008A9E9
:108CC000087000BF00BF08A8407801090901491CCD
:108CD00008A841704078F0218843103008A94870F6
:108CE00000BF08A8807806218843811C08A88170ED
:108CF000807808218843014608A881708078102177
:108D00008843014608A8817080784108490008A876
:108D100081700020039001A8039008A804901421FA
:108D2000684681820021C182142101830790A088B6
:108D30002346183303AA09A9A2DF0546284610B026
:108D400070BDF8B504460D46286820600020C04379
:108D5000E080697C2020015500BF012168468170B8
:108D600053214901018000BF221D69460120A0DF77
:108D70000646002E01D03046F8BD29462046FFF7B2
:108D8000BAFE29462046FFF72BFF3046F4E770B5C0
:108D900005460C462088102804D0112807D05028FA
:108DA0000FD109E021462846FFF786FE0AE021465A
:108DB0002846FFF784FE05E021462846FFF783FE9C
:108DC00000E000BF00BF70BD70B586B004460D4620
:108DD00014200590208B2B4605AA0021A4DF06460F
:108DE000002E02D0304606B070BDE0880F498842A0
:108DF00017D02020005D002813D0002001900290A1
:108E000003900490218B68468180012181710021AB
:108E1000018105A803900495E08801A9A6DF064614
:108E200000E008263046DEE7660A0000FFFF00008B
:108E3000F0B502460C46002035E001238340194678
:108E400023460B422ED0D5680D4205D101235B0489
:108E5000D5680D43D56004E003231B04D5688D431A
:108E6000D56005252D0707263602AD198600AD59B8
:108E700003263604B5430526360707273F02F619B1
:108E80008700F55105252D0707263602AD19860006
:108E9000AD591D430526360707273F02F6198700FF
:108EA000F55100BF401C2028C7D3F0BDF0B585B0F8
:108EB000EC4805690020EC49C86300263DE0142019
:108EC0007043EA49096844180120B040E84909683C
:108ED000084230D0E068C043684021680840074637
:108EE00039462046FFF7A4FFDE480069684003903A
:108EF000039800280ED003980543E068C0436840FB
:108F000021680840009020460099FFF791FF0098E3
:108F1000074300BFA068A84338400190606828401C
:108F20003840029001990298084303D022690199C0
:108F30000298904700BF701CC6B2CE4800788642A7
:108F4000BDDB05B0F0BD10B50146002028E01422BD
:108F50004A43C64B1B689A58012383401A421ED0CD
:108F60000522120707231B02D2188300D2580323BD
:108F70001B049A4305231B07072424021B198400A2
:108F80001A510522120707231B02D2188300D25858
:108F900005231B07072424021B1984001A51401CB7
:108FA0002028D4D310BD70B505460C46002C01D145
:108FB000072070BD20468107890F01D1012100E003
:108FC0000021002901D10720F3E7A8480460AA483E
:108FD00005700020A7490870A5490860A6480078D8
:108FE000142250430146A148006803F0D0FA002043
:108FF000C043A2498860062001218140A04A116037
:1090000000BF012100F0F7F80620012181409D4AB0
:10901000116000BF0020CCE7F8B504460D461646A7
:109020001F4692480068002801D10820F8BD002F93
:1090300001D10720FAE78F4800788F4909788842E4
:1090400001DB0420F2E7284630438A4909781422DC
:109050005143864A1268505086480078142148438C
:1090600082490968401845608248007814214843C5
:109070007E490968401886607E480078142148437C
:109080007A490968401807617A4800782070794861
:109090000078401C774908702078FFF754FF0020C3
:1090A000C4E7F0B5024671480068002801D10820E5
:1090B000F0BD70480078824201DB0720F8E700200D
:1090C000694BD8636748046969480068002802D181
:1090D00058066A4B586001209040654B1B68184346
:1090E000634B1860002314205043604D2D684019D5
:1090F000C360002140E001238B40184614235343F2
:109100005A4D2D68EB58034235D02546054202D012
:1091100003231B040EE001235B0414255543534E27
:109120003668AD19ED680543142656434F4F3F6826
:10913000F619F56005252D0707263602AD198E00B4
:10914000AD5903263604B5430526360707273F02E7
:10915000F6198F00F55105252D0707263602AD19A2
:109160008E00AD591D430526360707273F02F61925
:109170008F00F55100BF491C2029BCD3002097E780
:1091800010B5044639480068002801D1082010BDF8
:1091900038480078844201DB0720F8E72046FFF7D3
:1091A000D2FE0120A0403249096881433048016065
:1091B0000068002803D10120C007304988600020E2
:1091C000E5E710B5024629480068002801D10820CB
:1091D00010BD28480078824201DB0720F8E7142000
:1091E0005043224C246803191E4800691C68204023
:1091F00008600020ECE710B5002819DA224A0307BE
:109200001B0F083B9B089B00D2588307DC0EFF23F3
:10921000A3409A438B071B0E8407E40EA3401A4316
:10922000194B0407240F083CA408A4001A5118E0A5
:10923000144A03231B02D21883089B00D2588307C9
:10924000DC0EFF23A3409A438B071B0E8407E40E1A
:10925000A3401A430B4B032424021B198408A400C7
:109260001A5110BD00050050406100400C21002043
:10927000102100201521002014210020006300404F
:1092800080E200E000E100E01CED00E010B5002805
:1092900019DAF74A03071B0F083B9B089B00D258BB
:1092A0008307DC0EFF23A3409A438B071B0E840722
:1092B000E40EA3401A43EE4B0407240F083CA40815
:1092C000A4001A5118E0EB4A03231B02D2188308AA
:1092D0009B00D2588307DC0EFF23A3409A438B07E1
:1092E0001B0E8407E40EA3401A43E24B032424021E
:1092F0001B198408A4001A5110BD10B50446DE489D
:10930000846003211120FFF7C1FF10BD10B50120BB
:109310000004DA494860D94940394860112000F01A
:10932000E3FC112000F0D2FC0120D54908602F2079
:10933000FCF7D0FE0120D349087010BD10B51120F4
:1093400001218140CB4A8032116000BF012000041E
:10935000CA498860C949403988600120C8494860C5
:109360002F20FCF7B7FE0120C54988600020C649C0
:1093700008602F20FCF7AEFE0020C249087010BD27
:10938000F0B5024628205043C04B1B68C118C048A6
:109390000068401C02D1BE48026057E0BC488B68A0
:1093A000006828246043B94C24680019806883420F
:1093B00017D8B748006828235843B44B1B68C01817
:1093C00080688B68C31AB248006828246043AF4C99
:1093D000246800198360AE4800684862AC480260A7
:1093E00034E08B68AA4D2C6828680DE02825454399
:1093F000A64E3668AD19AD685B1B0446282545436B
:10940000A24E3668AD19686A451C07D02825454329
:109410009E4E3668AD19AD689D42E7D3451C0CD011
:1094200028254543994E3668AD19AD68EE1A2825B2
:109430004543964F3F68ED19AE608B604862282522
:109440006543924E3668AD196A6200BFF0BDF8B54B
:1094500006468F4805682C4609E0B44200D108E072
:10946000254628206043894909684018446A601CE1
:10947000F3D100BF601C00D1F8BDA5420FD18448D4
:10948000006828214843814909684018406A80499A
:10949000086008460068401C01D1FFF74FFF2820F4
:1094A00060437A49096840188768282060437749F3
:1094B00009684018416A28206843744A1268801875
:1094C000416228206843714909684018446A601C59
:1094D0000CD0282060436D49096840188068C11984
:1094E00028206043694A12688018816000BFC3E782
:1094F00010B5112000F0F1FB10BD10B5142000F0E4
:10950000ECFB10BD70B5044662480068002813D01B
:10951000604A216AE06912689047054600BF2E46FE
:10952000002E07D000BF5CA2FF2164313046FDF75A
:10953000EBF900BF00BF02E0E169206A884770BD17
:10954000F8B553480068401C39D0002700F0FEFBF6
:1095500004464D480168204600F0FBFB06464C4897
:10956000056811E028206843484909684418A06844
:10957000B04200D90AE0A068361AA068C719656A27
:109580002046FFF7BFFF00BF681CEBD100BF4C486F
:1095900000784C490978884209D14A480078401C33
:1095A000C0B248490870022801D10020087045481F
:1095B0000078800044490F50FFF79FFF00BFF8BDBF
:1095C00001463F4800783F4A127890421DD03C48FF
:1095D0000078401C3A4A107010460078022801D1E9
:1095E00000201070364800788000374A1058086014
:1095F000254A086812688018234A106010460068DF
:109600000002000A1060012070470020086000BFBF
:10961000FAE7FEB51E48006801902C4800780090DB
:1096200072E00098C0002A4909684418257867E06C
:109630001820684361680F18681CC5B2A078A8425A
:1096400000D100253868022802D0032855D141E016
:109650002821786848430D4909684618307E00285B
:1096600004D07868FFF7F3FE0020307646E0000073
:109670001CED00E000E100E0001501404013014056
:10968000001001403C21002028210020182100204A
:1096900024210020382100202E2E5C2E2E5C2E2E20
:1096A0005C536F757263655C6170705F636F6D6D45
:1096B0006F6E5C6170705F74696D65722E6300001F
:1096C00034210020352100202C2100201D210020E4
:1096D000202100200CE0FE49096828225143FD4A60
:1096E0001268881800210176F94A416A116000BFAA
:1096F000F7480068401CEED100E000BF00BF00BF8B
:109700006078A84294D100BF0098411EC9B2009170
:10971000002886D1EE4801680198814201D00120DD
:10972000FEBD0020FCE7F0B50346002426E0E84E2D
:10973000366828277E43E74F3F68F01986689E42C7
:1097400003D98668F61A86601CE086689B1B8668CB
:109750003419002686600676DD4E3568DC4F466A91
:109760003E604669002E08D00E193602360AC660E1
:109770004669066116684662156000BFD4480068F5
:10978000401CD4D100BFF0BDFEB50746D0480068EC
:109790000290D1480078019069E00198C000CF495B
:1097A000096845185CE0781C07D03E4628207043C5
:1097B000C84909684418676A23E02978182359437F
:1097C0006A6850182978491C29702978AA7891422A
:1097D00001D100212970466828217143BD4A1268D1
:1097E0008C180168012902D1217E002900D037E0C0
:1097F0008168E160C168216101696161416921623B
:1098000000BFB749E0680968401A0002000AB5497C
:10981000884208D2B249E068096800F09AFA2169E2
:109820004018A06011E0AE48E168006800F091FACD
:10983000009021690098814204D921690098081A92
:10984000A06001E00020A06000BF0020E060206177
:1098500001202076801E60623046FFF791FD00BF38
:10986000781CA0D12878697888429CD100BF0198E3
:10987000411EC9B2019100288FD195480168029814
:10988000814201D00120FEBD0020FCE7FEB59048DA
:109890000068401C34D08E480068282148438D4918
:1098A00009684018856800F051FA01908C480468F6
:1098B0002146019800F04DFAC61C8B48007800281C
:1098C00001D1FFF723FDAE4201D2284600E0304629
:1098D00004192402240A20468449086000BF00F0CD
:1098E00035FA00900199009800F033FAC71C204621
:1098F000019900F02EFA874201D9FFF7F9FD01E046
:10990000FFF71CFDFEBDFEB50020C043019074486A
:1099100004686F4807686846FFF752FE0546FFF780
:1099200078FE0646002D05D001AA21460098FFF7D3
:10993000FAFE01260198FFF727FF002800D0012634
:10994000002E02D03846FFF7A1FFFEBD41707047E0
:1099500070B502460B465078411C9078884200D181
:1099600000211078884201D1002070BD1960507824
:109970001826704355682C182046F6E7FFB581B0CD
:1099800005460E461746E900544A1268881869468B
:10999000FFF7DEFF0446002C02D1042005B0F0BD25
:1099A00001202060666000F0D1F9A060E7600498B3
:1099B00020610A986061E900484A12688818009995
:1099C000FFF7C4FFFFF799FD0020E7E7F8B504466D
:1099D0000E46E100414A126888186946FFF7B8FF51
:1099E0000546002D01D10420F8BD022028606E60DC
:1099F000E1003A4A126888180099FFF7A7FFFFF7BD
:109A00007CFD0020F0E738B50446E100334A1268D7
:109A100088186946FFF79CFF0546002D01D10420F8
:109A200038BD03202860001F6860E1002B4A1268DF
:109A300088180099FFF78AFFFFF75FFD0020EFE726
:109A400010B500202A490860002129484160816042
:109A5000C16000202649403908604860FFF770FD6A
:109A600010BD10B5FFF74FFF10BDFFB581B00E461A
:109A700017461C4620468107890F01D1012100E0CD
:109A80000021002902D1072005B0F0BD002C01D132
:109A90000720F9E7FFF752FC16490A9808601648B4
:109AA00006700C48046000250CE000212820684363
:109AB000084A1268115028206843064A1268801824
:109AC00001766D1CB542F0DB28207043041915E0C7
:109AD00024210020182100201D2100202021002009
:109AE00028210020FFFF7F003C210020401501407D
:109AF00040110140382100201C21002003209749FB
:109B0000087097480460183400250CE0E900944A76
:109B10001268881800210170417087704460182114
:109B200079430C196D1C032DF0DB0020C0438D49D7
:109B3000086000208C4908708C490870142000F0DF
:109B4000D3F803211420FFF7A1FB142000F0BEF886
:109B50000198FFF7D2FB00F0F9F885490860002072
:109B600092E770B503460C4682480068002801D190
:109B7000082070BD002A01D10720FAE7002B01D18F
:109B80000720F6E700211CE028204843794D2D6886
:109B90002858002814D1012528204843754E3668DE
:109BA000355028204843734D2D68401944602820C3
:109BB0004843704D2D684019C26119600020D8E7F4
:109BC000491C6D4800788142DEDB0420D1E710B5E6
:109BD00000F092F8012802D0032804D101E000240B
:109BE00003E0012401E0022400BF00BF204610BDB5
:109BF000FEB504460D4616465E480068002801D1B1
:109C00000820FEBD5C480078844201D2052D01D2B7
:109C10000720F6E7282060435649096808580128BC
:109C200001D00820EDE72820604352490968401818
:109C30004068012801D1284600E000200746FFF7D0
:109C4000C6FF3B462A46214600960190FFF796FE46
:109C5000D7E770B5044647480068002801D10820BE
:109C600070BD45480078844201D30720F8E72820DA
:109C70006043404909680858012801D00820EFE7EF
:109C8000FFF7A5FF05462146FFF7A0FEE8E710B560
:109C900038480068002801D1082010BDFFF797FF61
:109CA0000446FFF7B0FEF8E710B5044600F04EF8A2
:109CB0002060002010BD70B505460E4614463146A2
:109CC000284600F046F82060002070BDC206D20E83
:109CD00001219140294A11607047C206D20E01212C
:109CE0009140274A11607047C206D20E012191406F
:109CF000234A80321160704710B522484068C10580
:109D0000C90D002920D00A46103A104600280DDA65
:109D10001C4B1C330407240F083CA408A4001B5947
:109D20008407E40EE3401B069B0F0BE0134B032458
:109D300024021B198408A4001B598407E40EE34085
:109D40001B069B0FD8B210BD0420FCE70E484068EC
:109D500070470246501A0002000A70471D21002079
:109D60002021002024210020342100203521002042
:109D700028210020182100201C21002000E100E003
:109D800000E200E000ED00E0001501400023142196
:109D90004143F94A53541421414389184B8002230B
:109DA0001421414389188B600023142141438918F1
:109DB000CB601421414389180B6114214143891858
:109DC0008B80704710B50020EC490880EC49086092
:109DD000E949091F087048708870002403E0204694
:109DE000FFF7D4FF641C1E2CF9D310BDFFB583B060
:109DF00004460F4615460326E148006800280BD1AB
:109E0000002D06D10698002803D10220DC49086005
:109E100002E00120DA490860D9480068030002F036
:109E200034FD07FC05304D82B7D4FC00D5484069AD
:109E3000401C08D001221207126991B2D14A506920
:109E400002F032FB02E0012000074069401E0121C0
:109E50000907096989B24843029001200007006997
:109E60000004820C01200007006980B2784301469B
:109E7000029821DF0646002E02D10220C049086068
:109E8000CCE0384620DF0646002E16D1002D11D139
:109E9000069800280AD12078042803D10720B84961
:109EA00008600AE00520B649086006E00420B449CD
:109EB000086002E00320B2490860AFE0B1484069A1
:109EC000401C08D001221207126991B2AD4A5069B4
:109ED00002F0EAFA02E0012000074069401E012179
:109EE0000907096989B248430121090702900969F4
:109EF00089B2794308462A46029921DF0646002E98
:109F000010D1069800280AD12078042803D1062011
:109F10009B49086006E005209949086002E004209A
:109F2000974908607AE097484069401C08D00122B0
:109F30001207126991B2934A506902F0B5FA02E031
:109F4000012000074069401E01210907096989B203
:109F50004843A90040186188401801210907029070
:109F6000096989B27943AA00891862888818069A13
:109F7000029921DF0646002E09D12078042803D15A
:109F800006207F49086002E005207D49086045E021
:109F900001200007006980B27843AB00C01802902E
:109FA000608882082169029821DF0646002E0BD1C5
:109FB000002D06D10698002803D1072070490860BB
:109FC00002E006206E49086028E06E484069401CA7
:109FD00008D001221207126991B26A4A506902F050
:109FE00063FA02E0012000074069401E01210907D1
:109FF000096989B24843019001200007006981B2D4
:10A00000019802F051FA029020DF0646002E02D19C
:10A0100007205B49086001E0FFE700BF00BF304652
:10A0200007B0F0BDF0B585B00F275348001F00788A
:10A030001421484350494418E5682078022804D088
:10A04000042823D005286FD16FE0206903904B4886
:10A05000008886026088801B049003988019039012
:10A06000A08880194519012189020498884206D2E6
:10A07000049882082846039921DF074605E0FF225D
:10A0800001322846039921DF074680E0A0680001DD
:10A090003D49401800890490A0680001401840899B
:10A0A0000390A06800014018406802900298A842FE
:10A0B00005D10399049848436188884202D0A0687A
:10A0C00003280DD101200007006981B2284602F063
:10A0D000EBF92A4909884618304620DF074622E076
:10A0E00001200007006981B2284602F0DDF906462A
:10A0F00001200007006980B27043281A800801908F
:10A1000001200007006980B2711C48436188491929
:10A11000401A8008009031462046009B019AFFF7C4
:10A1200065FE074600BF32E030E00120000700690D
:10A1300081B2284602F0B8F90646A08841190120EC
:10A140000007006980B27043081A80080490A08854
:10A1500040196188421801200007006980B2711C13
:10A160004843801A8008039031462046039B049A96
:10A17000FFF73CFE07460AE0E430002048210020BB
:10A180004C210020001000103C33002000BF00BF15
:10A19000002F02D10120F7498870384605B0F0BD84
:10A1A000FFB581B0064617460024F24840781E28C5
:10A1B00037D0F0480078EF4949784018C4B21E2CD7
:10A1C00002DB20461E38C4B214206043E949091D51
:10A1D0000E54142060434018076114206043411856
:10A1E000029805C8CA60886014206043E14A121DC5
:10A1F0008018049941801420604380180A99818056
:10A200000025101F8078002805D1FFF70BFF0546B9
:10A21000112D00D10025D7484078401CD549487001
:10A2200000E00425284605B0F0BD10B50024D14853
:10A230004078002807DDFFF7F5FE0446002C02D029
:10A24000112C00D10024204610BDF8B50446C948A1
:10A25000007814214843C749091D0E5C081F007887
:10A2600014214843C349091D401880680001C249B0
:10A270000D58C048007814214843BE49091D4018B4
:10A280004088091F0090097814225143B94A121DD1
:10A2900089180B69111F097814225143B54A121D00
:10A2A00089180846083022463146A847F8BDFEB551
:10A2B00005460026AF48807801287DD10020AD49B1
:10A2C0008870AE480068082811D1022D03D1002003
:10A2D000AA49086002E00020A9490870FFF7A5FF1D
:10A2E0000646002E02D03046FFF7AFFFFEBD022D1E
:10A2F00002D0032D79D174E09E48007814214843A0
:10A300009C49091D44189F480088401C9D490880AD
:10A310002078022807D10846008880026188884298
:10A3200001DB012000E0002007462078052805D148
:10A3300092480068072801D1012000E00020029027
:10A340002078042805D18D480068072801D1012014
:10A3500000E000200190207804280BD18948008873
:10A3600080026188884205DB84480068002801D1AA
:10A37000012000E0002000900298002807D10198F9
:10A38000002804D10098002801D1002F1FD0002000
:10A390007A4908603046FFF758FF76490878FFF79A
:10A3A000F5FC00207749088072484078401E7149CA
:10A3B00048700846007800E01AE0401C0870084623
:10A3C00000781E2803DB084600781E380870FFF767
:10A3D0002CFF0646002E02D03046FFF736FF05E080
:10A3E00003E00D20FFF731FF00E000BF00BF00BF1A
:10A3F00000BF7BE770B5FFF7E5FC002062490880ED
:10A4000062484069401C08D001221207126991B2CB
:10A410005E4A506902F048F802E0012000074069F6
:10A42000C01E01210907096989B2484358490860DB
:10A4300000205449088000BF0DE0002102014E4B6E
:10A4400099500201D21811810201D21891810201A2
:10A45000D2185181401C0228EFD3082047490860D8
:10A460004A484069401C08D001221207126991B283
:10A47000464A506902F018F802E0012000074069DE
:10A48000401E01210907096989B248430646012097
:10A490000007006981B2304602F006F8054620DF69
:10A4A0000446002C04D101203249887034490870D8
:10A4B000204670BDF8B504460D4600BF3048007810
:10A4C000002801D10820F8BD00BF002C01D10E20CA
:10A4D000F9E7002D01D10E20F5E72068002801D111
:10A4E0000E20F0E7A08801210907096989B2884296
:10A4F00002DCA088102801DA0720E4E7E0880028C1
:10A500002FD022484069401C08D00122120712694E
:10A5100091B21E4A506901F0C7FF02E00120000716
:10A520004069401E01210907096989B24843E18851
:10A53000A2885143164A12688918884211D3E088CC
:10A54000A188484301210907096989B288420ADDC7
:10A55000A18801221207126990B201F0BBFF002905
:10A5600001D00720AFE720798007800F12D00720A5
:10A57000A9E70000E03000203C3300204C210020FF
:10A58000402100204821002042210020001000101E
:10A5900044210020FE480088022801D1042092E7CF
:10A5A000FB4800882860FB4800686860F849098813
:10A5B0000901F94A891868684860F549098809015C
:10A5C00020685050A088F24909880901891808813B
:10A5D000E088EF4909880901891848810027A68881
:10A5E000E1884E4300BF781C87B201200007006954
:10A5F00080B2B04205D201200007006980B2361A4D
:10A6000000E0002601200007006980B2E1490968E6
:10A610004018E049086001200007006980B2B0429C
:10A62000E1D9DB4800880001DB4940188781D84820
:10A630000088401CD6490880002044E73CB503460A
:10A6400000BFD6480078002801D108203CBD00BFDB
:10A65000002B01D10E20F9E7002A01D10E20F5E7E9
:10A660001868022805D218680001CB4C2058002831
:10A6700001D10720EAE75C68186801940090019C0A
:10A6800018680001C44D4019008948432018019002
:10A69000009800012C4600194089009C240164198F
:10A6A00024896043009C2401641964680019019C9A
:10A6B000A04201D80720C9E7019C009854601060AF
:10A6C0000020C3E7F8B504460E4615461F4600BFF6
:10A6D000B2480078002801D10820F8BD00BF002E44
:10A6E00001D10E20F9E7002C01D10E20F5E72068FA
:10A6F000022805D220680001A7490858002801D186
:10A700000720EAE720680001A34940184089216832
:10A710000901A14A89180989484321680901891852
:10A72000496840186168884201D80720D5E7002DA4
:10A7300006D020680001984940180089A84201DA33
:10A740000720CAE7E81921680901934A891809898D
:10A75000884201DD0720C0E7304600F05CF90028A0
:10A7600004D0384600F057F9002801D11020B4E792
:10A77000606800F050F9002801D11020ADE72B46A9
:10A780003246214602200097FFF70AFDA5E7F8B5FB
:10A7900004460E4615461F4600BF80480078002834
:10A7A00001D10820F8BD00BF002E01D10E20F9E72D
:10A7B000002C01D10E20F5E72068022805D2206880
:10A7C000000175490858002801D10720EAE72068F0
:10A7D0000001714940184089216809016E4A8918B1
:10A7E0000989484321680901891849684018616846
:10A7F000884201D80720D5E7002D06D02068000147
:10A80000654940180089A84201DA0720CAE7E8191B
:10A8100021680901604A89180989884201DD0720F9
:10A82000C0E7304600F0F7F8002804D0384600F0C2
:10A83000F2F8002801D11020B4E7606800F0EBF8CE
:10A84000002801D11020ADE72B46324621460520D5
:10A850000097FFF7A5FCA5E7FFB581B00C461546AC
:10A860001E4600BF4D480078002802D1082005B0E0
:10A87000F0BD00BF002C01D10E20F8E701980028A0
:10A8800001D10E20F3E72068022805D220680001DC
:10A8900041490858002801D10720E8E72068000155
:10A8A0003D4940184089216809013B4A89180989B6
:10A8B000484321680901891849684018616888423D
:10A8C00001D80720D3E7002D06D0206800013249C7
:10A8D00040180089A84201DA0720C8E7A8192168B2
:10A8E00009012D4A89180989884201DD0720BEE740
:10A8F000019800F090F8002804D0304600F08BF862
:10A90000002801D11020B2E7606800F084F8002828
:10A9100001D11020ABE7606881192A46019801F047
:10A920001DFE0095206800011B490F5800220321DD
:10A930002046019BB847002099E7F8B504460D462C
:10A9400000BF16480078002801D10820F8BD00BFDC
:10A95000002C01D10E20F9E72068022805D22068DA
:10A9600000010D490858002801D10720EEE72068B2
:10A97000000109494018408921680901064A8918DF
:10A98000098948432168090189184968401807E086
:10A9900042210020442100203C330020402100209F
:10A9A0006168884201D80720D0E7606800F033F87A
:10A9B000002801D11020C9E723681B011A4FDB19B9
:10A9C00062685B68D01A226812013B46D21811896E
:10A9D00001F06AFD002901D00720B7E700202B46CF
:10A9E0000246214600900420FFF7DAFB0646304677
:10A9F000ACE7014600BF0D480078002801D10820CF
:10AA0000704700BF002901D10E20F9E708484078BF
:10AA100008600020F4E701468807800F01D101207B
:10AA200070470020FCE700003C330020402100205C
:10AA3000E0300020F7B584B004460F46069806784B
:10AA4000B01C1F2803DC2079801C1F2802DD0C208D
:10AA500007B0F0BD1F20801B801E85B20295B11C7F
:10AA6000781802A97DDF03900398002801D003988D
:10AA7000EEE72068022808D168460089A84204DC75
:10AA800009200190684605890BE008200190207993
:10AA9000002804D02079A84201DC257901E068462D
:10AAA0000589681CC2B23046711CCEB23A54304699
:10AAB000721CD6B20199395406980178A81C08185E
:10AAC000C1B2069801700020C2E7F8B505460C46F1
:10AAD0002078001D1F2801DD0C20F8BD684679DFB5
:10AAE0000646002E01D03046F7E703212278501C9D
:10AAF0002070A95419212278501C2070A954207864
:10AB000041196846008800F08AFA217840182070C0
:10AB10000020E2E7F8B505460F4616461C46686871
:10AB2000002801D10720F8BD2078801C2988401812
:10AB30001F2801DD0C20F6E72878401CC1B22278DE
:10AB4000501C2070B1542178481C207077542A88FA
:10AB500023789819696801F001FD20782978401858
:10AB600020700020DFE730B503461078C01C1F2896
:10AB700001DD0C2030BD02241578681C10704C5586
:10AB80000A241578681C10704C551578681C1070D4
:10AB90004B550020EEE7FFB587B006461D46109CDA
:10ABA0000020069020780590002747E0B9007068E3
:10ABB00041180A886846028149884181002203A918
:10ABC00002A865DF04900498002802D004980BB016
:10ABD000F0BD6846017B099881422ED10698002875
:10ABE00001D0002000E00220019020786946097B16
:10ABF0004118019808181F2801DD0C20E7E7069886
:10AC0000002809D12078401C20702278511C089817
:10AC10002170A854012006902078421903A902A8A7
:10AC200065DF04900498002801D00498CFE72078CD
:10AC30006946097B4018207000BF7F1C3088B842ED
:10AC4000B4DC0698002806D021780598401C081A24
:10AC5000C1B2059829540020B9E7FFB581B0074675
:10AC600015460A9E009602223846049B0299FFF779
:10AC700092FF0446002C02D0204605B0F0BD00969D
:10AC8000102229463846049BFFF785FF0446002C16
:10AC900001D02046F1E70020EFE7014608880628AA
:10ACA00008DB08881922D201904205DD0888E04AB5
:10ACB000904201D0072070474888062808DB488862
:10ACC0001922D201904205DD4888D94A904201D02C
:10ACD0000720F0E70888D64A904208D0488890427A
:10ACE00005D008884A88904201DD0720E3E700206C
:10ACF000E1E7F8B506460D4614462078801D1F286A
:10AD000001D90C20F8BD3046FFF7C7FF0746002FDA
:10AD100001D03846F6E705212278501C2070A9544E
:10AD200012212278501C2070A954227851193088A1
:10AD300000F075F921784018207022785119708838
:10AD400000F06DF92178401820700020DAE7F8B59E
:10AD500005460E4614462879801CC7B22078801C10
:10AD6000C0191F2801DD0C20F8BD781CC1B2227863
:10AD7000501C2070B154FF212278501C2070B15417
:10AD800022789119288800F04AF92178401820701B
:10AD9000A88800280EDDA868002801D10720E3E775
:10ADA000AA8823789819A96801F0D8FB2078297916
:10ADB000401820700020D7E7FEB507460E4614461F
:10ADC000786B002801D10720FEBD0020019032E001
:10ADD000796B0C22019850430D182879801CC0B261
:10ADE00000900098401CC1B22278501C2070B154D1
:10ADF00016212278501C2070B1542278911928888D
:10AE000000F00DF9217840182070A88800280EDD88
:10AE1000A868002801D10720D6E7AA8823789819C6
:10AE2000A96801F09BFB20782979401820700198CF
:10AE3000401CC0B201903820C15D01988142C7DC3E
:10AE40000020C1E7F8B504460F461646002500204D
:10AE500030702068002809D0324639462046FFF776
:10AE6000E9FD0546002D01D02846F8BD607900288F
:10AE700008D031463846FFF728FE0546002D01D0A0
:10AE80002846F2E7208900280BDD33463A460121A7
:10AE900020460830FFF73EFE0546002D01D028462B
:10AEA000E3E7206900280BD00020216908563246CC
:10AEB0003946FFF758FE0546002D01D02846D4E755
:10AEC000A08A00280CDD3B460622022120461430D1
:10AED0000096FFF7C2FE0546002D01D02846C4E7C4
:10AEE000A08B00280CDD3B460722032120461C30A6
:10AEF0000096FFF7B2FE0546002D01D02846B4E7C4
:10AF0000A08C00280CDD3B4615221421204624305D
:10AF10000096FFF7A2FE0546002D01D02846A4E7C3
:10AF2000E06A002809D032463946E06AFFF7E1FEC0
:10AF30000546002D01D0284697E7206B002809D050
:10AF400032463946206BFFF702FF0546002D01D03F
:10AF500028468AE73820005D002809DD3246394658
:10AF60002046FFF729FF0546002D01D028467CE743
:10AF700028467AE701460889002807D0C8680028D3
:10AF800004D0C86800780422104201D1072070471D
:10AF90000020FCE701460889002801DD07207047F2
:10AFA0000020FCE7F3B593B00D46002112911191FA
:10AFB0001398002814D01398FFF7DCFF0446002CE8
:10AFC00002D0204615B0F0BD12AA09A91398FFF7C8
:10AFD00039FF0446002C01D02046F3E709AE00E01B
:10AFE0000026002D13D02846FFF7D4FF0446002C7E
:10AFF00001D02046E6E711AA01A92846FFF722FF63
:10B000000446002C01D02046DCE701AF00E0002719
:10B0100010A803793A46017A304672DFD2E7024639
:10B020000A70FF2000021040001248700220704792
:10B03000FFFF000001464888B74A1288904206DBAD
:10B040004888B54A5288904201DC012070470020B0
:10B05000FCE738B50546B1480088B14988423BD085
:10B06000B0480078401CAF490870AF48007B0978B1
:10B0700088420FDBA849A948008875DF0446002CE8
:10B0800007D0A9488069002803D0A74881692046D5
:10B09000884721E00020A3490870A348007C0028CD
:10B0A0000FD03B219D48008876DF0446002C07D056
:10B0B0009D488069002803D09B48816920468847C5
:10B0C00000BF99484069002806D0002000909648AB
:10B0D00041696846884700BF38BD70B505461C22E7
:10B0E0002946914801F03AFA0020904908702868F2
:10B0F00000280BD008228848296801F02FFA8648DA
:10B100007ADF0446002C08D0204670BD82487BDFE1
:10B110000446002C01D02046F7E70020C0437F49B9
:10B12000088000207F490870814A00218148FEF78D
:10B1300018FDEAE710B57F480068FEF78AFD10BDEC
:10B1400038B57D48FFF776FF002829D17748007889
:10B1500000280AD074484069002820D000200090C0
:10B16000714841696846884719E06E4800780028B0
:10B1700002D16D48456801E06B4885680022294688
:10B180006C480068FEF734FD0446002C07D0664882
:10B190008069002803D064488169204688470AE016
:10B1A00061484069002806D0012000905E4841694E
:10B1B0006846884700BF00205C49087038BD10B55C
:10B1C0000446A08855490880082221460E315A4875
:10B1D00001F0C4F90020534908705348C089002881
:10B1E00001D1FFF7ADFF10BD70B505460020C0438B
:10B1F0004A49088000204B4908704E480068FEF715
:10B2000028FD0446002C07D047488069002803D059
:10B21000454881692046884770BD70B50546AC1D1C
:10B2200020884149C989884220D1208B02281DD11C
:10B2300000BF00BFA17EE27E120211430846C10793
:10B24000C90F002902D0FFF77BFF0FE039480068E3
:10B25000FEF7FFFC0646002E07D033488069002821
:10B2600003D0314881693046884700BF70BD10B5B2
:10B2700004460822A11D304801F070F9FFF760FF75
:10B2800010BD10B504462088102806D0112808D01B
:10B2900012280ED0502810D107E02046FFF78FFF6C
:10B2A0000CE02046FFF7A0FF08E02046FFF7B5FFBF
:10B2B00004E02046FFF7DBFF00E000BF00BF10BD49
:10B2C00038B5044608222146134801F047F91248D0
:10B2D0007ADF0546002D1CD11748FFF7ABFE00288A
:10B2E0000BD10120114908700B490C48008875DF0B
:10B2F000054601200B4908700BE00B484069002807
:10B3000006D001200090084841696846884700BF80
:10B310000025284638BD0000522100205C21002075
:10B32000FFFF00005A2100205C3300205021002044
:10B3300053B00100682100205E21002070B5064650
:10B340000C46154629462046FBF7EFFA70BDF8B5C6
:10B3500059480078002800D1F8BD584800680028F6
:10B3600001D1012000E00020054655480068002872
:10B3700001D1012000E00020064600BF002D14D1BD
:10B38000684651DF0446052C01D101250CE0002C54
:10B3900006D000BF4BA269212046FBF7B5FA03E0B7
:10B3A000464900980968884700BF002E1AD15148C5
:10B3B0000088009069465048006861DF0446052C0B
:10B3C00001D101260DE0002C06D000BF3DA2802156
:10B3D0002046FBF799FA04E04748006838490968B5
:10B3E000884700BF002D02D0002E00D000E0C5E746
:10B3F00000BF00BFB0E7FFB581B00C4616461F4640
:10B40000002C02D1072005B0F0BD20468107890F2E
:10B4100001D1012100E00021002901D10720F2E73C
:10B420003548046033480680344807603449019841
:10B4300010DF0546002D01D02846E4E701201E4913
:10B440000870162026DFDEE710B511DF0446002C59
:10B4500001D0012000E0002017490870204610BDEF
:10B460000146002901D10E207047154801600020D7
:10B47000FAE70146002901D10E2070470F4801600C
:10B480000020FAE770B51D480068002811D01B485D
:10B4900000688047044600BF2546002D07D000BF46
:10B4A00008A2FF2133312846FBF72EFA00BF00BF68
:10B4B00001E0FFF74CFF70BD6C21002080210020CF
:10B4C0007C2100202E2E5C2E2E5C2E2E5C536F7560
:10B4D0007263655C73645F636F6D6D6F6E5C736FD9
:10B4E00066746465766963655F68616E646C6572D5
:10B4F0002E6300007821002074210020702100209C
:10B500003DB3010001B505E00098401E00900348DE
:10B51000FAF7F0FD00980028F6D108BDE703000017
:10B5200030B50346481CC004040C10468507AD0F17
:10B5300001D1012500E00025002D01D1072030BDFB
:10B54000794802601019794D28600020784D2870E4
:10B55000784D287078480380784801800020EEE715
:10B56000F7B584B00C467448008884426BDC744D97
:10B570000020039000F0A4F802900298012814D053
:10B5800003A82EDF0746022F01D172B60CE000BFE0
:10B590000197019F002F06D000BF6AA25A2101988F
:10B5A000FBF7B2F900BF00BF00BF6148007800F0B0
:10B5B000B1F860490978884206D05D48057800787E
:10B5C00000F0A8F85A4908700298012814D062B611
:10B5D0006846007B2FDF0746022F0CD000BF019783
:10B5E000019F002F06D000BF56A262210198FBF7F1
:10B5F0008BF900BF00BF00BF5148854221D0E90050
:10B60000494A0698126850500498002811D0002C1E
:10B610000FDD494909886943444A1268881822465F
:10B62000049900F09BFFE8003F49096840188480B6
:10B6300005E00020E9003C4A12688918888000264D
:10B6400000E0042600E00926304607B0F0BDF8B55A
:10B6500005460E46174605200090354800783549C6
:10B66000097888421BD033480478007800F052F8FB
:10B67000304908703048008860432C4909684018F8
:10B680002860E00028490968401880883080E00080
:10B6900025490968085838600020009000BF0098CC
:10B6A000F8BD0EB504E068468188009A029890477C
:10B6B0006A4601A902A8FFF7CAFF0028F3D00EBD11
:10B6C00010B52B484068C105C90D002920D00A4695
:10B6D000103A104600280DDA254B1C330407240FBE
:10B6E000083CA408A4001B598407E40EE3401B0691
:10B6F0009B0F0BE01F4B032424021B198408A4009A
:10B700001B598407E40EE3401B069B0FD8B210BD03
:10B710000420FCE7014609480088814201DA481C00
:10B7200000E00020C0B27047842100208821002062
:10B730008D2100208C2100208E21002090210020CE
:10B74000FFFF00002E2E5C2E2E5C2E2E5C536F759C
:10B750007263655C6170705F636F6D6D6F6E5C616D
:10B7600070705F7363686564756C65722E6300004A
:10B7700000ED00E000E100E0FEB504460D4616468F
:10B7800000BF002C01D0012000E000200746002F60
:10B7900005D100BFF8A2B021FBF7B6F800BF00BF8B
:10B7A000206A00280BD0FE4903C901910090009542
:10B7B00068468680226A01990098904700BFFEBDC6
:10B7C00070B504460D4600BF002C01D0012000E0FA
:10B7D00000200646002E05D100BFE7A2A221FBF7FC
:10B7E00093F800BF00BF00BF002D01D0012000E092
:10B7F00000200646002E05D100BFDFA2A321FBF7E3
:10B8000083F800BF00BF00202060288070BD70B5A5
:10B81000044600BF002C01D0012000E000200646B5
:10B82000002E05D100BFD4A2D921FBF76DF800BFCF
:10B8300000BF608B401C60832820005D002807D17A
:10B84000012128200155628B00212046FFF794FF3B
:10B8500020680521090240188069C5B220690028C6
:10B8600008D0E08AA18A884204DAE08A411CE18299
:10B8700021690D54E089218B884213DAA0680028E1
:10B8800007D0E089A189884203DAA068E189405C99
:10B8900000E000202168052212028918C861E089B1
:10B8A000401CE081608B218B884215DB207F00F0FB
:10B8B00055FAE68921460C31081FFFF781FF214622
:10B8C0001431081FFFF77CFF02206062324601211D
:10B8D0002046FFF751FF00BF70BD10B5B14880682A
:10B8E00001280ED1B04840680421084209D0002048
:10B8F000AC49886000F03CFA04462046FFF787FF19
:10B9000000BF10BDFFB581B005460E46144600BF0E
:10B91000002C01D0012000E000200746002F05D1B7
:10B9200000BF95A27221FAF7EFFF00BF00BF2560AC
:10B9300066600020A060A081E0812061A082E0829A
:10B9400060832083207720626062002128200155D7
:10B950006846017C2920015505B0F0BDFFB581B0D6
:10B96000044615461E460A9F00BF002D01D0012047
:10B9700000E0002000900098002805D100BF7EA2C2
:10B980009321FAF7C1FF00BF00BF00BF002E01D016
:10B99000012000E0002000900098002805D100BFA1
:10B9A00075A29421FAF7B0FF00BF00BF00BF002FBF
:10B9B00001D0012000E0002000900098002805D16F
:10B9C00000BF6DA29521FAF79FFF00BF00BF2C605A
:10B9D000002C01D0029800E0002030800020388048
:10B9E00005B0F0BDF8B506460C46002C01D10E207E
:10B9F000F8BD304600F0BCF9054600BF002D01D06F
:10BA0000012000E000200746002F06D100BF5AA207
:10BA1000FF211431FAF778FF00BF00BF002E0CD1D0
:10BA2000E07E002801D0012000E0002003462A46E5
:10BA300003215E48FFF766FF00E000BF00BF2069FA
:10BA400000F08CF9206900F080F9206900F086F997
:10BA5000606800F07AF9E06800F077F90021A068EA
:10BA60008A0005231B0707273F02DB198700DA51ED
:10BA700000BF207C28776068296805221202891897
:10BA80008860E06829688918C860A06829688918F2
:10BA900008612068296889184862A07E4000617E9C
:10BAA00089000843217E08432968152292018918DC
:10BAB000486100212868FF300130816000BF68685C
:10BAC0002ADF0746002F07D000BF2BA2FF214331FA
:10BAD0003846FAF719FF00BF00BF00BF217D686834
